:020000040800F2
:1000000000C00120F14F0008E5260008F326000893
:10001000F9260008FF260008052700080000000058
:100020000000000000000000000000000B27000896
:1000300019270008000000002727000835270008BE
:10004000415000084150000841500008415000084C
:10005000415000084150000841500008415000083C
:10006000415000084150000841500008415000082C
:10007000415000084150000841500008415000081C
:10008000415000084150000841500008415000080C
:1000900041500008415000084150000841500008FC
:1000A00041500008415000084150000841500008EC
:1000B00041500008415000084150000841500008DC
:1000C00041500008415000084150000841270008F5
:1000D00041500008415000084150000841500008BC
:1000E00041500008415000084150000841500008AC
:1000F000415000084150000841500008415000089C
:10010000415000084150000841500008415000088B
:10011000415000084150000841500008415000087B
:100120004150000855270008415000086927000881
:10013000415000084150000841500008415000085B
:10014000415000084150000841500008415000084B
:10015000415000084150000841500008415000083B
:10016000415000084150000841500008415000082B
:1001700041500008415000087D27000800000000A1
:08018000415000084150000845
:1001900010B5054C237833B9044B13B10448AFF3C1
:1001A00000800123237010BD7400002000000000B7
:1001B0008459000808B5034B1BB103490348AFF34A
:1001C000008008BD0000000078000020845900086D
:1001D00001F0FF01102A2BDB10F0070F08D010F8F8
:1001E000013B013A8B422DD010F0070F42B3F6D1FC
:1001F000F0B441EA012141EA014122F007047FF015
:1002000000070023F0E80256083C85EA010586EA6B
:10021000010685FA47F5A3FA87F586FA47F6A5FAA7
:1002200087F68EB9EED1F0BC01F0FF0102F00702B3
:1002300032B110F8013B013A83EA010313B1F8D15E
:100240000020704701387047002D06BF354603383F
:10025000073815F0010F07D1013015F4807F02BF78
:10026000013015F4C03F0130F0BC0138704700BFC9
:1002700053B94AB9002908BF00281CBF4FF0FF310D
:100280004FF0FF3000F074B9ADF1080C6DE904CE09
:1002900000F006F8DDF804E0DDE9022304B0704761
:1002A0002DE9F047089D04468E46002B4DD18A4229
:1002B000944669D9B2FA82F252B101FA02F3C2F15C
:1002C000200120FA01F10CFA02FC41EA030E9440ED
:1002D0004FEA1C48210CBEFBF8F61FFA8CF708FB0E
:1002E00016E341EA034306FB07F199420AD91CEBE6
:1002F000030306F1FF3080F01F81994240F21C8118
:10030000023E63445B1AA4B2B3FBF8F008FB10335F
:1003100044EA034400FB07F7A7420AD91CEB040494
:1003200000F1FF3380F00A81A74240F20781644464
:10033000023840EA0640E41B00261DB1D4400023E9
:10034000C5E900433146BDE8F0878B4209D9002D4D
:1003500000F0EF800026C5E9000130463146BDE8D7
:10036000F087B3FA83F6002E4AD18B4202D3824241
:1003700000F2F980841A61EB030301209E46002DF0
:10038000E0D0C5E9004EDDE702B9FFDEB2FA82F245
:10039000002A40F09280A1EB0C014FEA1C471FFAA3
:1003A0008CFE0126200CB1FBF7F307FB131140EA8A
:1003B00001410EFB03F0884208D91CEB010103F157
:1003C000FF3802D2884200F2CB804346091AA4B219
:1003D000B1FBF7F007FB101144EA01440EFB00FEED
:1003E000A64508D91CEB040400F1FF3102D2A64552
:1003F00000F2BB800846A4EB0E0440EA03409CE7F1
:10040000C6F12007B34022FA07FC4CEA030C20FA9D
:1004100007F401FA06F31C43F9404FEA1C4900FABD
:1004200006F3B1FBF9F8200C1FFA8CFE09FB18113A
:1004300040EA014108FB0EF0884202FA06F20BD9AD
:100440001CEB010108F1FF3A80F08880884240F2FD
:100450008580A8F102086144091AA4B2B1FBF9F041
:1004600009FB101144EA014100FB0EFE8E4508D93C
:100470001CEB010100F1FF346CD28E456AD90238C1
:10048000614440EA0840A0FB0294A1EB0E01A142A6
:10049000C846A64656D353D05DB1B3EB080261EB14
:1004A0000E0101FA07F722FA06F3F1401F43C5E9EE
:1004B000007100263146BDE8F087C2F12003D84024
:1004C0000CFA02FC21FA03F3914001434FEA1C4766
:1004D0001FFA8CFEB3FBF7F007FB10360B0C43EA58
:1004E000064300FB0EF69E4204FA02F408D91CEB08
:1004F000030300F1FF382FD29E422DD90238634406
:100500009B1B89B2B3FBF7F607FB163341EA0341A5
:1005100006FB0EF38B4208D91CEB010106F1FF38F4
:1005200016D28B4214D9023E6144C91A46EA0046EB
:1005300038E72E46284605E70646E3E61846F8E67D
:100540004B45A9D2B9EB020864EB0C0E0138A3E7C6
:100550004646EAE7204694E74046D1E7D0467BE7A7
:10056000023B614432E7304609E76444023842E71F
:10057000704700BF80B483B000AF78600B4B1B683E
:100580000B4AA2FB03239B0C7A6802FB03F37B60FC
:1005900000BF7B685A1E7A60002BFAD100BF00BFF3
:1005A0000C37BD465DF8047B704700BF0400002097
:1005B00083DE1B4390B589B000AF04460846114660
:1005C0001A462346FB800346BB800B467B801346BE
:1005D0003B807B88013BFB610023BB6101237B6186
:1005E00001233B617B885B007A69D31AFB608DE055
:1005F000FB699AB2FB88134498B2BB699AB2BB8874
:1006000013449BB23A88194600F034FEBB699AB293
:10061000FB88134498B2FB699AB2BB8813449BB21F
:100620003A88194600F026FEBB699BB2FA88D31AB5
:1006300098B2FB699AB2BB8813449BB23A881946B8
:1006400000F018FEFB699BB2FA88D31A98B2BB6916
:100650009AB2BB8813449BB23A88194600F00AFE4E
:10066000FB699BB2FA88D31A98B2BB699BB2BA886D
:10067000D31A9BB23A88194600F0FCFDBB699BB2C5
:10068000FA88D31A98B2FB699BB2BA88D31A9BB284
:100690003A88194600F0EEFDBB699AB2FB88134414
:1006A00098B2FB699BB2BA88D31A9BB23A881946B2
:1006B00000F0E0FDFB699AB2FB88134498B2BB6975
:1006C0009BB2BA88D31A9BB23A88194600F0D2FD81
:1006D000FB68002B09DCBB690133BB61FA683B692D
:1006E0001344FB603B6902333B61FB68002B0DDD6B
:1006F000FB69013BFB617B6902337B617B885B4269
:100700005A007B691344FA681344FB60FA69BB69B9
:100710009A42BFF66DAF00BF00BF2437BD4690BD03
:1007200090B58BB000AF0446084611461A462346E2
:10073000FB800346BB800B467B8013463B807B8857
:100740007B6200233B627B885B00C3F10103FB619A
:100750000023BB6100237B6161E0FA887B6AD31AC6
:100760003B6118E03B6998B23B6A9AB2BB8813447C
:100770009BB23A88194600F07DFD3B6998B23B6A0E
:100780009BB2BA88D31A9BB23A88194600F072FD20
:100790003B6901333B61FA887B6A13443A699A42A8
:1007A000E0DDFA883B6AD31AFB6018E0FB6898B278
:1007B0007B6A9AB2BB8813449BB23A88194600F010
:1007C00059FDFB6898B27B6A9BB2BA88D31A9BB278
:1007D0003A88194600F04EFDFB680133FB60FA8849
:1007E0003B6A1344FA689A42E0DD3B6A01333B629C
:1007F0007A69BB6913447B61BB690233BB617B6966
:100800005A00FB691344002B09DD7B6A013B7B62C4
:100810007A69FB6913447B61FB690233FB617A6A85
:100820003B6A9A4299DA00BF00BF2C37BD4690BDA3
:1008300090B587B000AF0446084611461A462346D5
:10084000FB800346BB800B467B8013463B80002326
:10085000FB820023BB820023FB740023BB744FF098
:100860000003FB607A88FB88D31A07EE903AF8EE13
:10087000E77AC7ED037AD7ED037AF5EEC07AF1EEA9
:1008800010FA01D50123FB744FF00003FB603A8896
:10089000BB88D31A07EE903AF8EEE77AC7ED037AF1
:1008A000D7ED037AF5EEC07AF1EE10FA01D5012307
:1008B000BB74FB7C002B04D17A88FB88D31AFB82A3
:1008C00003E0FA887B88D31AFB823B8DFA8AB988C9
:1008D000F88800F091FD3B8DFA8A3988F88800F09D
:1008E0008BFDBB7C002B04D13A88BB88D31ABB821A
:1008F00003E0BA883B88D31ABB823B8DBA8AB98899
:10090000F88800F0BDFD3B8DBA8AB988788800F080
:10091000B7FDFB8A002B02D1BB8A002B05D03A8D94
:1009200039887B88184600F0A5FC00BF1C37BD46FF
:1009300090BD90B589B002AF0446084611461A46EC
:100940002346FB800346BB800B467B8013463B80DF
:100950000023FB820023BB820023FB740023BB74B3
:100960000023BB6000233B820023FB817A88FB8845
:10097000D31ABB60BB68002B01DA0123FB74002390
:10098000BB603A88BB88D31ABB60BB68002B01DA16
:100990000123BB74FB7C002B06D17A88FB88D31A19
:1009A000FB82FB883B8205E0FA887B88D31AFB82B6
:1009B0007B883B82BB7C002B06D13A88BB88D31A4C
:1009C000BB82BB88FB8105E0BA883B88D31ABB8217
:1009D0003B88FB81BC8AFA8AF989388A3B8D00936F
:1009E000234600F0ADFC00BF1C37BD4690BD90B55E
:1009F0008DB002AFB96011461A460346FB730B4631
:100A0000BB811346FB80FB7B1E2B61D997F90F300E
:100A1000002B5DDBBB681B78FB77BB685B78BB7723
:100A2000BB689B787B77BB68DB783B77FB7B203BA5
:100A3000FA7F02FB03F30433BA681344BB61BB7F44
:100A40009AB27B7F9CB2F988B889BB8F009323460A
:100A500000F076FC00237B6235E000233B622BE054
:100A60003B7F3A6A03FB02F27B6ADB1003F01F0351
:100A700013440133BA6913441B78FB757B6A03F096
:100A80000703012202FA03F3BB75FA7DBB7D134015
:100A9000DBB2002B0DD03B6A9AB2BB89134498B2EB
:100AA0007B6A9AB2FB8813449BB23A8F194600F0D6
:100AB000E1FB3B6A01333B62BB7F3A6A9A42CFDB80
:100AC0007B6A01337B627B7F7A6A9A42C5DB00E0F6
:100AD00000BF2C37BD4690BD80B58AB002AFF8602C
:100AE000B96011461A460B46FB801346BB80BB68B3
:100AF0001B78FB77BB685B78BB772DE0FB681878C9
:100B0000B988FA88BB8D01933B8D00930B46B96879
:100B1000FFF76DFFFB681B78203BFA7F02FB03F3B6
:100B20000433BA681344BB61BB691B78FB75FB7D5A
:100B30009A1CBB7F9A4207DAFB7D9AB2FB8813446A
:100B40009BB20233FB8004E0BB7F9AB2FB88134464
:100B5000FB80FB680133FB60FB681B78002BCDD169
:100B600000BF00BF2037BD4680BD80B584B000AF58
:100B700078600B46FB70FB78012B0AD1012000F056
:100B800069FAF0234FF4A0720021002000F0E4F88D
:100B900028E0FB78032B0AD1032000F05BFAF02356
:100BA0004FF4A0720021002000F0D6F81AE0FB7884
:100BB000022B0AD1022000F04DFA4FF4A073F0226C
:100BC0000021002000F0C8F80CE0FB78002B09D1D0
:100BD000002000F03FFA4FF4A073F0220021002023
:100BE00000F0BAF80023FB600023BB6011E07A68D4
:100BF000FB6813444FF4FA71184600F091F8FB6853
:100C000003F5FA73FB600120FFF7B4FCBB68013306
:100C1000BB60BB68B3F5997FE9D900BF00BF10374F
:100C2000BD4680BD80B582B000AF78607B68064A63
:100C3000934204D101220221044802F00BFE00BFBE
:100C40000837BD4680BD00BF940100200008024067
:100C500080B582B000AF0346FB7100BF084B1B6834
:100C60009B6803F00203022BF8D1FB1D01221946F9
:100C7000034803F093FE00BF0837BD4680BD00BFA8
:100C80009401002080B582B000AF78600B467B8075
:100C900000BF084B1B689B6803F00203022BF8D1CE
:100CA0007B881A467968034803F078FE00BF08374E
:100CB000BD4680BD9401002080B582B000AF0346E0
:100CC000FB7100220421084802F0C4FD0022022129
:100CD000054802F0BFFDFB791846FFF7B9FF00BFDA
:100CE0000837BD4680BD00BF0008024080B582B015
:100CF00000AF0346FB7101220421084802F0AAFD5F
:100D000000220221054802F0A5FDFB791846FFF7F5
:100D10009FFF00BF0837BD4680BD00BF00080240EE
:100D200080B582B000AF78600B467B800122042141
:100D3000084802F08FFD00220221064802F08AFDD9
:100D40007B8819467868FFF79DFF00BF0837BD46CE
:100D500080BD00BF0008024090B585B000AF0446DA
:100D6000084611461A462346FB800346BB800B46C5
:100D70007B8013463B80FB881B0A9BB2DBB23B7334
:100D8000FB88DBB27B737B881B0A9BB2DBB2BB7335
:100D90007B88DBB2FB732A20FFF78EFF07F10C0381
:100DA00004211846FFF7BCFFBB881B0A9BB2DBB2CD
:100DB0003B73BB88DBB27B733B881B0A9BB2DBB205
:100DC000BB733B88DBB2FB732B20FFF775FF07F18A
:100DD0000C0304211846FFF7A3FF2C20FFF76CFF3C
:100DE00000BF1437BD4690BD80B500AF002208217A
:100DF0000C4802F02FFD0A2001F09EFD0022022186
:100E0000084802F027FD0A2001F096FD0122082182
:100E1000044802F01FFD01220221024802F01AFDDF
:100E200000BF80BD0008024080B500AF012208214C
:100E3000024802F00FFD00BF80BD00BF0008024065
:100E400080B500AFFFF7F0FFFFF7CEFF0120FFF7FF
:100E500033FF0A2001F070FDCB20FFF72DFF392072
:100E6000FFF744FF2C20FFF741FF0020FFF73EFF74
:100E70003420FFF73BFF0220FFF738FFCF20FFF7BA
:100E80001BFF0020FFF732FFC120FFF72FFF3020AC
:100E9000FFF72CFFE820FFF70FFF8520FFF726FF65
:100EA0000020FFF723FF7820FFF720FFEA20FFF75D
:100EB00003FF0020FFF71AFF0020FFF717FFED20C8
:100EC000FFF7FAFE6420FFF711FF0320FFF70EFF84
:100ED0001220FFF70BFF8120FFF708FFF720FFF735
:100EE000EBFE2020FFF702FFC020FFF7E5FE2320E6
:100EF000FFF7FCFEC120FFF7DFFE1020FFF7F6FE34
:100F0000C520FFF7D9FE3E20FFF7F0FE2820FFF7AF
:100F1000EDFEC720FFF7D0FE8620FFF7E7FE362064
:100F2000FFF7CAFE4820FFF7E1FE3A20FFF7C4FEB4
:100F30005520FFF7DBFEB120FFF7BEFE0020FFF7D4
:100F4000D5FE1820FFF7D2FEB620FFF7B5FE082029
:100F5000FFF7CCFE8220FFF7C9FE2720FFF7C6FE71
:100F6000F220FFF7A9FE0020FFF7C0FE2620FFF7C2
:100F7000A3FE0120FFF7BAFEE020FFF79DFE0F2041
:100F8000FFF7B4FE3120FFF7B1FE2B20FFF7AEFED6
:100F90000C20FFF7ABFE0E20FFF7A8FE0820FFF79E
:100FA000A5FE4E20FFF7A2FEF120FFF79FFE37209F
:100FB000FFF79CFE0720FFF799FE1020FFF796FE33
:100FC0000320FFF793FE0E20FFF790FE0920FFF7A6
:100FD0008DFE0020FFF78AFEE120FFF76DFE002066
:100FE000FFF784FE0E20FFF781FE1420FFF77EFE40
:100FF0000320FFF77BFE1120FFF778FE0720FFF7A5
:1010000075FE3120FFF772FEC120FFF76FFE48200A
:10101000FFF76CFE0820FFF769FE0F20FFF766FE62
:101020000C20FFF763FE3120FFF760FE3620FFF74C
:101030005DFE0F20FFF75AFE1120FFF73DFE6420F2
:1010400001F07AFC2920FFF737FE002000F002F8BB
:1010500000BF80BD80B582B000AF0346FB71362073
:10106000FFF72AFE012001F067FCFB79032B37D83C
:1010700001A252F823F000BF891000089F10000859
:10108000B5100008CB1000084820FFF72FFE174BC3
:10109000F0221A80164B4FF4A0721A8021E028200B
:1010A000FFF724FE114B4FF4A0721A80104BF02270
:1010B0001A8016E08820FFF719FE0C4BF0221A80E8
:1010C0000B4B4FF4A0721A800BE0E820FFF70EFEE6
:1010D000064B4FF4A0721A80054BF0221A8000E0F4
:1010E00000BF00BF0837BD4680BD00BF0200002022
:1010F000000000202DE9F0438DB000AF03463960B9
:10110000FB806B461E4600237B623B685B00B3F5A9
:10111000FA7F02D23B687B6202E04FF4FA737B6293
:10112000012204213E4802F095FB002202213C48A6
:1011300002F090FBFB881B0A9BB287F82330796A88
:101140000B46013BFB610023884699464FF00002A5
:101150004FF000034FEAC90343EA58734FEAC8024D
:1011600000230C461D464FF000024FF00003EB0039
:1011700043EA5473E200CB1DDB08DB00ADEB030D4B
:101180006B460033BB610023BB620EE0BA69BB6AE9
:10119000134497F823201A70BB6A0133FA88D1B23E
:1011A000BA69D154BB6A0233BB62BA6A7B6A9A429B
:1011B000ECD33B685B007B617A697B6AB2FBF3F33B
:1011C0003B617B697A6AB3FBF2F2796A01FB02F256
:1011D0009B1AFB603B69002B10D00023FB6209E0E7
:1011E0007B6A9AB20A23B9690E4803F09BFAFB6A3C
:1011F0000133FB62FA6A3B699A42F1D3FB689AB207
:101200000A23B969074803F08DFA01220221044834
:1012100002F020FBB54600BF3437BD46BDE8F08381
:10122000000802409401002080B582B000AF034660
:10123000FB800E4B1B889AB20D4B1B889BB2002182
:101240000020FFF789FD094B1B889BB21A46084B0B
:101250001B889BB202FB03F31A46FB881146184613
:10126000FFF748FF00BF0837BD4680BD02000020E1
:101270000000002080B586B000AF0346FB800B461F
:10128000BB8013467B802C4B1B889BB2FA889A420A
:101290004DD22A4B1B889BB2BA889A4247D2FB8810
:1012A0001B0A9BB2DBB23B75FB88DBB27B75FB880C
:1012B00001331B12DBB2BB75FB88DBB20133DBB23F
:1012C000FB75BB881B0A9BB2DBB23B74BB88DBB2ED
:1012D0007B74BB8801331B12DBB2BB74BB88DBB2EF
:1012E0000133DBB2FB747B881B0A9BB2DBB23B731E
:1012F0007B88DBB27B732A20FFF7DEFC07F1140347
:1013000004211846FFF70CFD2B20FFF7D5FC07F151
:10131000100304211846FFF703FD2C20FFF7CCFC37
:1013200007F10C0302211846FFF7FAFC00E000BFAA
:101330001837BD4680BD00BF02000020000000201D
:1013400090B583B000AF0446084611461A462346BE
:10135000FB800346BB800B467B8013463B80244BBF
:101360001B889BB2FA889A423DD2224B1B889BB2C3
:10137000BA889A4237D2FA887B8813441C4A12886A
:1013800092B2934205DD1A4B1B889AB2FB88D31A9E
:101390007B80BA883B881344164A128892B29342E3
:1013A00005DD144B1B889AB2BB88D31A3B80FA88A0
:1013B0007B8813449BB2013B9CB2BA883B881344A0
:1013C0009BB2013B9BB2B988F8882246FFF7C4FC68
:1013D0003B887A8802FB03F31A463B8B114618467A
:1013E000FFF788FE00E000BF0C37BD4690BD00BF90
:1013F000020000200000002090B583B000AF04463A
:10140000084611461A462346FB800346BB800B461E
:101410007B8013463B80184B1B889BB2FA889A420C
:1014200025D2164B1B889BB2BA889A421FD2FA88E3
:101430007B881344104A128892B2934205DD0E4B0A
:101440001B889AB2FB88D31A7B80FA887B88134466
:101450009BB2013B9AB2BB88B988F888FFF77CFC45
:101460007A883B8811461846FFF744FE00E000BF2B
:101470000C37BD4690BD00BF0200002000000020D8
:1014800090B583B000AF0446084611461A4623467D
:10149000FB800346BB800B467B8013463B80184B8A
:1014A0001B889BB2FA889A4225D2164B1B889BB2A6
:1014B000BA889A421FD2BA887B881344114A12888C
:1014C00092B2934205DD0F4B1B889AB2BB88D31AA8
:1014D0007B80BA887B8813449BB2013B9BB2FA881D
:1014E000B988F888FFF738FC7A883B881146184697
:1014F000FFF700FE00E000BF0C37BD4690BD00BF07
:10150000020000200000002090B59FB002AF01F063
:10151000A1F900F02FFD00F067FE00F03DFE00F0A5
:1015200005FE00F0EFFD00F097FD00F0BDFDFFF7B8
:1015300087FC4FF6FF70FFF777FE0320FFF78AFD69
:101540004FF6FF730193002300930A230A229F4959
:101550009F48FFF7C1FA4FF4FA6001F0EDF94FF63A
:10156000FF70FFF761FE0023A7F86E3087E0B7F841
:101570006E301A469749984803F096FD4FF6FF7370
:101580000193002300930A230A2294499248FFF70B
:10159000A3FA4FF6FF7301931F2300931E230A2221
:1015A0008E498D48FFF798FA4FF6FF7301934FF479
:1015B0007843009332230A2288498748FFF78CFA40
:1015C0004FF6FF7301934FF4FC63009346230A2206
:1015D00082498148FFF780FA4FF6FF730193002399
:1015E00000935A230A227D497B48FFF775FA4FF68C
:1015F000FF7301931F2300936E230A2277497648D5
:10160000FFF76AFA4FF6FF7301934FF478430093A4
:1016100082230A2271497048FFF75EFA4FF6FF7382
:1016200001934FF4FC63009396230A226B496A48A6
:10163000FFF752FA002301934FF6FF730093AA239A
:101640000A2266496448FFF747FA002301931F23E3
:101650000093BE230A2261495F48FFF73DFA002349
:1016600001934FF478430093D2230A225B495A48EE
:10167000FFF732FAB7F86E300133A7F86E30B7F8DB
:101680006E300A2B7FF673AF4FF47A7001F054F985
:101690004FF6FF70FFF7C8FD0320FFF7DBFC4FF6A6
:1016A000FF730193002300930A230A224B494C48FD
:1016B000FFF712FA4FF4FA6001F03EF94FF6FF70AF
:1016C000FFF7B2FD0023A7F86C3019E0B7F86C30D3
:1016D0001A464049404803F0E7FC4FF6FF73019378
:1016E000002300930A230A223E493B48FFF7F4F9FE
:1016F0000A2001F021F9B7F86C300133A7F86C30FB
:10170000B7F86C30642BE1D94FF47A7001F014F91A
:101710004FF6FF70FFF788FD0320FFF79BFC4FF6A5
:10172000FF730193002300930A230A222B492E48BA
:10173000FFF7D2F94FF4FA6001F0FEF84FF6FF70B0
:10174000FFF772FD002300936423642232213220CC
:10175000FFF76EF800230093322332221421142065
:10176000FFF7E7F800230093132313220A210A202E
:10177000FFF75EF84FF47A7001F0DEF84FF6FF7075
:10178000FFF752FD0320FFF765FC4FF6FF7301934F
:10179000002300930A230A2210491448FFF79CF9FA
:1017A0004FF6FF730193002300931E230A220B4977
:1017B0000F48FFF791F94FF4FA6001F0BDF84FF6CA
:1017C000FF70FFF731FD0023BB6650E0045B0008AB
:1017D0009C590008C05900084C020020E86200082B
:1017E000D05900084C6C0008E8590008045A000859
:1017F000205A00080023BB600023FB800023BB802D
:1018000000237B8000233B809B4802F0EDFEB86004
:10181000BB68FB80984802F0E7FEB860BB68BB80FD
:10182000954802F0E1FEB860BB687B80924802F008
:10183000DBFEB860BB683B80FB88C3F30803FB801A
:10184000BB88C3F30803BB807B8803F01F037B8046
:101850003B887A88B988F888FFF7CEFD3B887A887C
:10186000B988F888FFF70CFEBB6E0133BB66BB6E10
:1018700047F22F529342BDD94FF47A7001F05CF8D1
:101880004FF6FF70FFF7D0FC0320FFF7E3FB4FF6A6
:10189000FF730193002300930A230A2277497848B3
:1018A000FFF71AF94FF6FF730193002300931E23ED
:1018B0000A2272497348FFF70FF94FF4FA6001F0FA
:1018C0003BF84FF6FF70FFF7AFFC00237B6638E074
:1018D00000237B6100237B8200233B820023FB816A
:1018E0000023BB81644802F07FFE78617B697B82C4
:1018F000614802F079FE78617B693B825E4802F0C4
:1019000073FE78617B69FB815B4802F06DFE786154
:101910007B69BB817B8AC3F308037B823B8AC3F369
:1019200008033B82FB8903F01F03FB81FB895B00FB
:101930009AB2BB89398A788AFEF73CFE7B6E013306
:101940007B667B6E40F6B7329342C1D94FF47A7012
:1019500000F0F2FF4FF6FF70FFF766FC0320FFF781
:1019600079FB4FF6FF730193002300930A230A22A9
:1019700042494348FFF7B0F84FF6FF730193002345
:1019800000931E230A223D493F48FFF7A5F84FF474
:10199000FA6000F0D1FF4FF6FF70FFF745FC00231F
:1019A0003B6638E000233B620023FB830023BB83BC
:1019B00000237B8300233B832F4802F015FE38620F
:1019C0003B6AFB832C4802F00FFE38623B6ABB8304
:1019D000294802F009FE38623B6A7B83264802F000
:1019E00003FE38623B6A3B83FB8BC3F30803FB8334
:1019F000BB8BC3F30803BB837B8B03F01F037B8389
:101A00007B8B5B089AB23B8BB98BF88BFEF788FE19
:101A10003B6E01333B663B6EB3F57A7FC2D34FF426
:101A20007A7000F089FF4FF6FF70FFF7FDFB03208F
:101A3000FFF710FB4FF6FF730193002300930A2377
:101A40000A220E490E48FFF747F84FF6FF7301933D
:101A5000002300931E230A2208490C48FFF73CF894
:101A60004FF4FA6000F068FF4FF6FF70FFF7DCFB01
:101A70000023FB654DE000BF84010020E862000800
:101A8000045A0008405A0008485A0008585A0008EA
:101A90000023FB6200237B8500233B850023FB841E
:101AA0000023BB84844802F09FFDF862FB6A7B85BB
:101AB000814802F099FDF862FB6A3B857E4802F09E
:101AC00093FDF862FB6AFB847B4802F08DFDF862AF
:101AD000FB6ABB847B8DC3F308037B853B8DC3F31B
:101AE00008033B85FB8C03F01F03FB847A8DFB8C82
:101AF00013449CB23A8DFB8C13449AB2398D788D85
:101B0000BB8C009313462246FEF792FEFB6D013319
:101B1000FB65FB6D44F61F629342B9D94FF47A70AE
:101B200000F00AFF4FF6FF70FFF77EFB0320FFF780
:101B300091FA4FF6FF730193002300930A230A22C0
:101B40005E495F48FEF7C8FF4FF6FF73019300231D
:101B500000931E230A2259495A48FEF7BDFF4FF44D
:101B6000FA6000F0E9FE4FF6FF70FFF75DFB00231F
:101B7000BB6539E00023BB630023FB860023BB86E3
:101B800000237B8600233B864B4802F02DFDB86383
:101B9000BB6BFB86484802F027FDB863BB6BBB8676
:101BA000454802F021FDB863BB6B7B86424802F0DA
:101BB0001BFDB863BB6B3B86FB8EC3F30803FB8640
:101BC000BB8EC3F30803BB867B8E03F01F037B86AB
:101BD0007C8E7A8EB98EF88E3B8E00932346FFF76B
:101BE000AFFBBB6D0133BB65BB6D44F61F62934217
:101BF000C0D94FF47A7000F09FFE4FF6FF70FFF7E8
:101C000013FB0320FFF726FA4FF6FF73019300231F
:101C100000930A230A2229492B48FEF75DFF4FF65D
:101C2000FF730193002300931E230A2223492748B0
:101C3000FEF752FF4FF4FA6000F07EFE4FF6FF70A1
:101C4000FFF7F2FA224B00221A80224B00221A8060
:101C500026E01F4B1B8803F001039BB2002B07D02B
:101C60001B4B1B881B4A118800221846FFF702FBFA
:101C7000174B1B8801339AB2154B1A80144B1B88E3
:101C8000B3F5A07F03D2134B1B88EF2BE1D9114B87
:101C90001B8801339AB20F4B1A800D4B00221A8019
:101CA0000C4B1B88EF2BE9D9094B00221A80094BFA
:101CB00000221A8037E000BF84010020E86200089B
:101CC000045A0008645A0008785A0008905A00081C
:101CD0007402002076020020994B1B8803F0010358
:101CE0009BB2002B07D0974B1B88954A1188002286
:101CF0001846FFF7BFFA934B1B8801339AB2914BFA
:101D00001A80904B1B88B3F5A07F03D28C4B1B88A5
:101D1000EF2BE1D98A4B1B8801339AB2884B1A808A
:101D2000884B00221A80864B1B88EF2BE9D94FF491
:101D3000FA6000F001FE4FF6FF70FFF775FA03201E
:101D4000FFF788F94FF6FF730193002300930A23EE
:101D50000A227D497D48FEF7BFFE4FF6FF730193CF
:101D6000002300931E230A2277497948FEF7B4FE28
:101D70004FF4FA6000F0E0FD4FF6FF70FFF754FA01
:101D800000237B6531E000237B640023A7F8423009
:101D90000023A7F840306F4802F026FC78647B6C83
:101DA000A7F842306B4802F01FFC78647B6CA7F800
:101DB0004030684802F018FC0346FB87B7F8423011
:101DC000C3F30803A7F84230B7F84030C3F3080361
:101DD000A7F84030FA8FB7F84010B7F842301846ED
:101DE000FFF748FA7B6D01337B657B6D5A4A93425E
:101DF000C9D94FF4FA6000F09FFD4FF6FF70FFF76E
:101E000013FA0320FFF726F94FF6FF73019300231F
:101E100000930A230A224C495048FEF75DFE4FF614
:101E2000FF730193002300931E230A2246494C4866
:101E3000FEF752FE4FF4FA6000F07EFD0023A7F893
:101E4000523045E00023A7F850300023A7F84E3069
:101E50000023A7F84C30B7F85230424AA2FB0323C4
:101E6000DB08A7F85030B7F85030DB02A7F8503045
:101E7000B7F852303B4AA2FB03239B08A7F84E3029
:101E8000B7F84E305B01A7F84E30B7F85230354AFC
:101E9000A2FB0323DB08A7F84C30B7F85020B7F8B3
:101EA0004E3013449AB2B7F84C301344A7F84A3076
:101EB000244B1988B7F85200B7F84A300093F02342
:101EC0000122FFF73DFAB7F852300133A7F852303C
:101ED000B7F85230B3F5A07FB4D94FF4FA6000F0F0
:101EE0002BFD4FF6FF70FFF79FF90320FFF7B2F8C5
:101EF0004FF6E07301934FF4784300930A230A22CC
:101F000011491948FEF7E8FD4FF6FF7301930023CE
:101F100000931E230A220C491448FEF7DDFD4FF4FE
:101F2000FA6000F009FD02211148FEF71EFE0020B4
:101F3000FFF790F841F2883000F0FEFCFFF7F9BAA5
:101F40007602002074020020E8620008A85A000807
:101F5000C45A0008840100201FA10700D45A0008B9
:101F6000E45A0008CDCCCCCCF05A0008FC5A00084A
:101F7000907D000880B594B000AF07F120033022B7
:101F80000021184603F088F807F10C0300221A60BC
:101F90005A609A60DA601A610023BB602C4B1B6C9C
:101FA0002B4A43F080531364294B1B6C03F080537E
:101FB000BB60BB6800237B60264B1B68254A43F44B
:101FC00080431360234B1B6803F480437B607B6872
:101FD00003233B624FF480337B620123FB621023B7
:101FE0003B630223BB634FF48003FB6304233B6426
:101FF000A8237B640223BB640723FB6407F120034F
:10200000184601F085FD0346002B01D000F06CF965
:102010000F23FB6002233B6100237B614FF4A0533D
:10202000BB614FF48053FB6107F10C030521184697
:1020300001F0E6FF0346002B01D000F055F9002225
:102040000021002002F0C2F800BF5037BD4680BD1D
:10205000003802400070004080B500AF104B114ABC
:102060001A600F4B00225A600D4B20229A600C4BD5
:102070008022DA600A4B00221A61094B00225A6161
:10208000074B00229A61064B00221A62044800F0B6
:1020900046FE0346002B01D000F026F900BF80BDAC
:1020A000900000200000055080B500AF124B134A8D
:1020B0001A60114B124A5A600F4B00229A600E4B65
:1020C0000022DA600C4B4FF480421A610A4B002266
:1020D0005A61094B00229A61074B0022DA61064BD4
:1020E00000221A62044801F0CFFB0346002B01D006
:1020F00000F0FAF800BF80BD300100200058004019
:10210000A086010080B500AF064B074A1A6005485B
:1021100002F0EAF90346002B01D000F0E5F800BF19
:1021200080BD00BF840100200008065080B500AFCC
:10213000174B184A1A60164B4FF482725A60144BB0
:1021400000229A60124B0022DA60114B00221A61C1
:102150000F4B00225A610E4B4FF400729A610C4BE8
:102160000022DA610A4B00221A62094B00225A62ED
:10217000074B00229A62064B0A22DA62044802F0F8
:1021800048FA0346002B01D000F0AEF800BF80BD36
:10219000940100200030014080B582B000AF0023E0
:1021A0007B60104B1B6B0F4A43F4800313630D4B92
:1021B0001B6B03F480037B607B68002200213920C5
:1021C00000F0B9FC392000F0D2FC002200213B20B5
:1021D00000F0B1FC3B2000F0CAFC00BF0837BD4650
:1021E00080BD00BF0038024080B58AB000AF07F163
:1021F000140300221A605A609A60DA601A610023A0
:102200003B61364B1B6B354A43F080031363334B02
:102210001B6B03F080033B613B690023FB602F4B8A
:102220001B6B2E4A43F0040313632C4B1B6B03F010
:102230000403FB60FB680023BB60284B1B6B274A31
:1022400043F001031363254B1B6B03F00103BB60D9
:10225000BB6800237B60214B1B6B204A43F00203C9
:1022600013631E4B1B6B03F002037B607B68002231
:102270002E211B4801F0EEFA0E237B610123BB6186
:102280000023FB6100233B6207F114031946144845
:1022900001F044F920237B610123BB610123FB6131
:1022A00000233B6207F1140319460D4801F036F98B
:1022B0004FF480737B610223BB610023FB61032326
:1022C0003B6200237B6207F114031946054801F0C5
:1022D00025F900BF2837BD4680BD00BF0038024049
:1022E000000802400000024080B400AFFEE700009A
:1022F00080B483B000AF00237B60104B5B6C0F4A4F
:1023000043F4804353640D4B5B6C03F480437B6068
:102310007B6800233B60094B1B6C084A43F08053E9
:102320001364064B1B6C03F080533B603B6800BF9B
:102330000C37BD465DF8047B704700BF0038024093
:1023400080B58CB000AF786007F11C0300221A60E2
:102350005A609A60DA601A617B681B68544A93423B
:1023600040F0A1800023BB61524B5B6B514A43F0AC
:10237000010353634F4B5B6B03F00103BB61BB690C
:1023800000237B614B4B1B6B4A4A43F001031363F1
:10239000484B1B6B03F001037B617B6900233B61AE
:1023A000444B1B6B434A43F004031363414B1B6BC9
:1023B00003F004033B613B690023FB603D4B1B6B57
:1023C0003C4A43F0020313633A4B1B6B03F00203D6
:1023D000FB60FB685023FB6102233B6202237B62AC
:1023E0000323BB620D23FB6207F11C03194632482D
:1023F00001F094F84FF43C63FB6102233B6202233B
:102400007B620323BB620D23FB6207F11C031946A9
:102410002A4801F083F84FF47073FB6102233B629A
:1024200002237B620323BB620D23FB6207F11C03C3
:102430001946234801F072F8224B234A1A60214BB7
:102440004FF000725A601F4B00229A601D4B002211
:10245000DA601C4B00221A611A4B4FF480525A6109
:10246000184B4FF480429A61164B0022DA61154BEB
:1024700000221A62134B00225A62124800F0BCFC80
:102480000346002B01D0FFF72FFF7B680D4A9A63AC
:102490000C4A7B689363002200214E2000F04BFB26
:1024A0004E2000F064FB00BF3037BD4680BD00BF4A
:1024B00000000550003802400000024000080240C1
:1024C00000040240D00000202864024080B58AB099
:1024D00000AF786007F1140300221A605A609A6016
:1024E000DA601A617B681B68194A93422CD1002379
:1024F0003B61184B1B6B174A43F002031363154BE8
:102500001B6B03F002033B613B694FF440637B614B
:102510001223BB610123FB6103233B6204237B6223
:1025200007F1140319460C4800F0F8FF0023FB6084
:10253000084B1B6C074A43F480031364054B1B6C68
:1025400003F48003FB60FB6800BF2837BD4680BDF5
:1025500000580040003802400004024080B485B0BA
:1025600000AF78607B681B680B4A93420DD1002353
:10257000FB600A4B5B6B094A43F040035363074B14
:102580005B6B03F04003FB60FB6800BF1437BD4684
:102590005DF8047B704700BF000806500038024019
:1025A00080B58AB000AF786007F1140300221A608A
:1025B0005A609A60DA601A617B681B68434A9342EA
:1025C0007FD100233B61424B5B6C414A43F4805313
:1025D00053643F4B5B6C03F480533B613B690023C6
:1025E000FB603B4B1B6B3A4A43F001031363384BD0
:1025F0001B6B03F00103FB60FB680023BB60344BE3
:102600001B6B334A43F002031363314B1B6B03F024
:102610000203BB60BB68A0237B610223BB61002374
:10262000FB6103233B6205237B6207F11403194618
:10263000284800F073FF10237B610223BB61002355
:10264000FB6103233B6205237B6207F114031946F8
:10265000214800F063FF214B214A1A601F4B4FF0C5
:10266000C0625A601D4B40229A601C4B0022DA6007
:102670001A4B4FF480621A61184B00225A61174BB3
:1026800000229A61154B0022DA61144B00221A6273
:10269000124B00225A62114800F0AEFB0346002B99
:1026A00001D0FFF721FE7B680C4A9A640B4A7B68D5
:1026B000936300220021232000F03DFA232000F044
:1026C00056FA00BF2837BD4680BD00BF003001402C
:1026D000003802400000024000040240EC010020EB
:1026E0005864024080B400AF00BFBD465DF8047B73
:1026F000704780B400AFFEE780B400AFFEE780B45F
:1027000000AFFEE780B400AFFEE780B400AF00BFCB
:10271000BD465DF8047B704780B400AF00BFBD4686
:102720005DF8047B704780B400AF00BFBD465DF824
:10273000047B704780B500AF00F0DEF800BF80BDBD
:1027400080B500AF024802F0DFF900BF80BD00BFD6
:102750009401002080B500AF024800F075FC00BF76
:1027600080BD00BFD000002080B500AF024800F05F
:102770006BFC00BF80BD00BFEC01002080B500AF46
:10278000024800F00FFA00BF80BD00BF900000209B
:1027900080B584B000AF7860114B1B68002B02D16C
:1027A0000F4B104A1A600E4B1B68FB600C4B1A68EB
:1027B0007B6813446A46934207D902F043FC034600
:1027C0000C221A604FF0FF3306E0054B1A687B6855
:1027D0001344034A1360FB6818461037BD4680BD9A
:1027E000780200209002002080B400AF164BD3F88E
:1027F0008830154A43F47003C2F88830134B1B68C5
:10280000124A43F001031360104B00229A600F4BF1
:102810001B680E4A23F0847323F4803313600B4B40
:102820000B4A5A60094B1B68084A23F48023136043
:10283000064B0022DA60044B4FF000629A6000BF42
:10284000BD465DF8047B704700ED00E000380240B3
:102850001030002480B500AF0E4B1B680D4A43F4C6
:10286000007313600B4B1B680A4A43F480631360C8
:10287000084B1B68074A43F480731360032000F081
:102880004FF90F2000F008F8FFF732FD002318463B
:1028900080BD00BF003C024080B582B000AF7860D0
:1028A000124B1A68124B1B7819464FF47A73B3FB1C
:1028B000F1F3B2FBF3F3184600F067F90346002B7F
:1028C00001D001230EE07B680F2B0AD80022796823
:1028D0004FF0FF3000F02FF9064A7B6813600023A9
:1028E00000E0012318460837BD4680BD04000020E3
:1028F0000C0000200800002080B400AF064B1B78BD
:102900001A46064B1B681344044A136000BFBD46B9
:102910005DF8047B704700BF0C0000207C020020A3
:1029200080B400AF034B1B681846BD465DF8047BBE
:10293000704700BF7C02002080B584B000AF786093
:10294000FFF7EEFFB8607B68FB60FB68B3F1FF3F09
:1029500005D00A4B1B781A46FB681344FB6000BF86
:10296000FFF7DEFF0246BB68D31AFA689A42F7D82F
:1029700000BF00BF1037BD4680BD00BF0C00002067
:1029800080B485B000AF78607B6803F00703FB601C
:102990000C4BDB68BB60BA684FF6FF031340BB60AB
:1029A000FB681A02BB68134343F0BF6343F4003370
:1029B000BB60044ABB68D36000BF1437BD465DF8F6
:1029C000047B704700ED00E080B400AF044BDB688F
:1029D0001B0A03F007031846BD465DF8047B7047E9
:1029E00000ED00E080B483B000AF0346FB7197F9BF
:1029F0000730002B0BDBFB7903F01F02074997F927
:102A000007305B09012000FA02F241F8232000BFE1
:102A10000C37BD465DF8047B704700BF00E100E065
:102A200080B483B000AF03463960FB7197F907307B
:102A3000002B0ADB3B68DAB20C4997F90730120128
:102A4000D2B20B4483F800230AE03B68DAB20849AB
:102A5000FB7903F00F03043B1201D2B20B441A7648
:102A600000BF0C37BD465DF8047B704700E100E015
:102A700000ED00E080B489B000AFF860B9607A6022
:102A8000FB6803F00703FB61FB69C3F10703042B39
:102A900028BF0423BB61FB690433062B02D9FB6901
:102AA000033B00E000237B614FF0FF32BB6902FA79
:102AB00003F3DA43BB681A407B699A404FF0FF3159
:102AC0007B6901FA03F3D9437B680B401343184633
:102AD0002437BD465DF8047B7047000080B582B0A6
:102AE00000AF78607B68013BB3F1807F01D30123A5
:102AF0000FE00A4A7B68013B53600F214FF0FF3023
:102B0000FFF78EFF054B00229A60044B07221A60E4
:102B1000002318460837BD4680BD00BF10E000E026
:102B200080B582B000AF78607868FFF729FF00BFFA
:102B30000837BD4680BD80B586B000AF0346B9609A
:102B40007A60FB7300237B61FFF73EFF78617A6850
:102B5000B9687869FFF78EFF024697F90F30114682
:102B60001846FFF75DFF00BF1837BD4680BD80B532
:102B700082B000AF0346FB7197F907301846FFF7A4
:102B800031FF00BF0837BD4680BD80B582B000AFC1
:102B900078607868FFF7A2FF034618460837BD46FD
:102BA00080BD000080B584B000AF78607B681B6892
:102BB0001B69FB60FB6803F00403002B16D07B68E5
:102BC0001B6804225A617B68DB6B43F002027B685E
:102BD000DA637B68042283F825207B689B6B2F4A8D
:102BE0001A657B689B6B184600F00CFAFB6803F0D3
:102BF0000203002B16D07B681B6802225A617B6897
:102C0000DB6B43F001027B68DA637B68042283F8A4
:102C100025207B689B6B214A1A657B689B6B184655
:102C200000F0F0F9FB6803F01003002B06D07B687E
:102C30001B6810225A61786800F03CF8FB6803F0CA
:102C40000803002B06D07B681B6808225A6178684D
:102C500000F03AF8FB6803F00103002B19D07B6801
:102C60001B681B6803F00203022B07D17B681B68FB
:102C7000DA687B681B6822F01E02DA607B681B68DA
:102C8000DA687B681B6822F00102DA60786800F07D
:102C900025F800BF1037BD4680BD00BFF12C0008ED
:102CA00080B483B000AF786000BF0C37BD465DF8DC
:102CB000047B704780B483B000AF786000BF0C37EE
:102CC000BD465DF8047B704780B483B000AF786088
:102CD00000BF0C37BD465DF8047B704780B483B0FD
:102CE00000AF786000BF0C37BD465DF8047B7047CD
:102CF00080B584B000AF78607B689B6BFB60FB683D
:102D00009B6B5B6D022B03D0FB68012283F82520AF
:102D1000F868FFF7C5FF00BF1037BD4680BD80B51E
:102D200082B000AF78607B68002B01D101235FE0A7
:102D30007B6893F82530DBB2002B09D17B68002239
:102D400083F824207868FFF7FBFA7868FFF7F8FA31
:102D50007B68022283F825207B681B681B687A68E1
:102D6000126823F47F6323F0080313607B681B68F9
:102D700019687B685A687B685B691A437B68DB6803
:102D80001A437B681B691A437B689B681A437B68FC
:102D90009B691A437B681B6A1A437B681B680A435A
:102DA0001A607B685B68102B12D17B681B7F1A4608
:102DB0007B685B7F1B021A437B689B7F1B0442EA94
:102DC00003017B68DB7F1A067B681B680A439A61F4
:102DD0007B681B68DA687B681B6842F01E02DA6059
:102DE0007B680022DA637B68012283F825200023B8
:102DF00018460837BD4680BD80B586B000AF786004
:102E000000237B61FFF78CFD38617B68002B01D1CB
:102E1000012399E07B68022283F835207B68002239
:102E200083F834207B681B681A687B681B6822F073
:102E300001021A600FE0FFF773FD02463B69D31AE7
:102E4000052B08D97B6820225A657B68032283F80A
:102E50003520032378E07B681B681B6803F00103BF
:102E6000002BE8D17B681B681B687B617A69384B53
:102E700013407B617B685A687B689B681A437B6858
:102E8000DB681A437B681B691A437B685B691A43DA
:102E90007B689B691A437B68DB691A437B681B6A02
:102EA00013437A6913437B617B685B6A042B07D108
:102EB0007B68DA6A7B681B6B13437A6913437B6117
:102EC0007B681B687A691A607B681B685B697B6139
:102ED0007B6923F007037B617B685B6A7A69134334
:102EE0007B617B685B6A042B17D17B689B6A7A697C
:102EF00013437B617B68DB6A002B0ED0786800F09F
:102F000091FA0346002B08D07B6840225A657B6803
:102F1000012283F83520012316E07B681B687A695B
:102F20005A61786800F048FA0346FB607B68DB6D05
:102F30003F229A40FB689A607B6800225A657B6852
:102F4000012283F83520002318461837BD4680BD7E
:102F50003F8010F080B586B000AFF860B9607A604D
:102F60003B600023FB75FB689B6D3B61FB6893F83E
:102F70003430012B01D1022340E0FB68012283F8A9
:102F80003420FB6893F83530DBB2012B2FD1FB687E
:102F9000022283F83520FB6800225A653B687A6874
:102FA000B968F86800F0DAF9FB68DB6D3F229A40F7
:102FB0003B699A60FB681B681A68FB681B6842F0F3
:102FC00016021A60FB681B6C002B07D0FB681B689D
:102FD0001A68FB681B6842F008021A60FB681B68ED
:102FE0001A68FB681B6842F001021A6005E0FB6882
:102FF000002283F834200223FB75FB7D1846183726
:10300000BD4680BD80B483B000AF78607B6893F824
:103010003530DBB2022B04D07B6880225A65012355
:103020000CE07B68052283F835207B681B681A68F2
:103030007B681B6822F001021A60002318460C37D7
:10304000BD465DF8047B704780B586B000AF786000
:103050000023BB608E4B1B688E4AA2FB03239B0A96
:103060007B617B689B6D3B613B691B68FB607B6898
:10307000DB6D08229A40FB681340002B1AD07B6856
:103080001B681B6803F00403002B13D07B681B68CC
:103090001A687B681B6822F004021A607B68DB6D8B
:1030A00008229A403B699A607B685B6D43F001029D
:1030B0007B685A657B68DB6D01229A40FB68134090
:1030C000002B12D07B681B685B6903F08003002B28
:1030D0000BD07B68DB6D01229A403B699A607B686C
:1030E0005B6D43F002027B685A657B68DB6D0422EE
:1030F0009A40FB681340002B12D07B681B681B684A
:1031000003F00203002B0BD07B68DB6D04229A4096
:103110003B699A607B685B6D43F004027B685A658B
:103120007B68DB6D10229A40FB681340002B43D074
:103130007B681B681B6803F00803002B3CD07B688E
:10314000DB6D10229A403B699A607B681B681B68A4
:1031500003F48023002B18D07B681B681B6803F4E2
:103160000023002B08D17B681B6C002B24D07B68CC
:103170001B6C786898471FE07B689B6C002B1BD00A
:103180007B689B6C7868984716E07B681B681B68B7
:1031900003F48073002B07D17B681B681A687B6877
:1031A0001B6822F008021A607B681B6C002B03D09E
:1031B0007B681B6C786898477B68DB6D20229A409F
:1031C000FB681340002B00F08F807B681B681B6836
:1031D00003F01003002B00F087807B68DB6D20225A
:1031E0009A403B699A607B6893F83530DBB2052BD7
:1031F00036D17B681B681A687B681B6822F0160250
:103200001A607B681B685A697B681B6822F0800221
:103210005A617B681B6C002B03D17B689B6C002B75
:1032200007D07B681B681A687B681B6822F008025D
:103230001A607B68DB6D3F229A403B699A607B682D
:10324000012283F835207B68002283F834207B68D4
:103250001B6D002B7ED07B681B6D7868984779E0EA
:103260007B681B681B6803F48023002B1DD07B68E0
:103270001B681B6803F40023002B0DD17B685B6C7B
:10328000002B31D07B685B6C786898472CE000BFDE
:1032900004000020B5814E1B7B68DB6B002B23D024
:1032A0007B68DB6B786898471EE07B681B681B684F
:1032B00003F48073002B0FD17B681B681A687B684E
:1032C0001B6822F010021A607B68012283F8352007
:1032D0007B68002283F834207B68DB6B002B03D0F3
:1032E0007B68DB6B786898477B685B6D002B32D01E
:1032F0007B685B6D03F00103002B22D07B68052205
:1033000083F835207B681B681A687B681B6822F08D
:1033100001021A60BB680133BB607A699A4207D325
:103320007B681B681B6803F00103002BF2D100E0EF
:1033300000BF7B68012283F835207B68002283F878
:1033400034207B68DB6C002B05D07B68DB6C7868F5
:10335000984700E000BF1837BD4680BD80B485B0F7
:1033600000AFF860B9607A603B60FB681B681A6860
:10337000FB681B6822F480221A60FB681B683A68AD
:103380005A60FB689B68402B08D1FB681B687A6811
:103390009A60FB681B68BA68DA6007E0FB681B6824
:1033A000BA689A60FB681B687A68DA6000BF1437F5
:1033B000BD465DF8047B704780B485B000AF78608F
:1033C0007B681B68DBB2103B144AA2FB03231B097A
:1033D000FB60134AFB6813441B781A467B68DA6566
:1033E000FB68032B09D97B681B6823F47F7323F0E8
:1033F00003031A1D7B689A6507E07B681B6823F44A
:103400007F7323F003037A6893657B689B6D18468E
:103410001437BD465DF8047B704700BFABAAAAAA6B
:10342000A8D5020880B485B000AF78600023FB7394
:103430007B689B6ABB607B689B69002B1FD1BB6864
:10344000032B56D801A252F823F000BF5D340008C8
:103450006F3400085D340008F33400087B68DB6AD1
:1034600003F08073002B46D00123FB7343E07B689D
:10347000DB6AB3F1C07F40D10123FB733DE07B6881
:103480009B69B3F5005F21D1BB68032B37D801A23C
:1034900052F823F0A5340008AB340008A534000826
:1034A000BD3400080123FB7330E07B68DB6A03F066
:1034B0008073002B25D00123FB7322E07B68DB6A3D
:1034C000B3F1C07F1FD10123FB731CE0BB68022B4B
:1034D00003D9BB68032B03D018E00123FB7315E06D
:1034E0007B68DB6A03F08073002B0ED00123FB7333
:1034F0000BE000BF0AE000BF08E000BF06E000BF2D
:1035000004E000BF02E000BF00E000BFFB7B184604
:103510001437BD465DF8047B704700BF80B489B0A6
:1035200000AF7860396000237B6100233B6100239A
:10353000BB610023FB616BE10122FB6902FA03F32B
:103540007B613B681B687A6913403B613A697B6920
:103550009A4240F05A813B685B6803F00303012BF9
:1035600005D03B685B6803F00303022B30D17B6816
:103570009B68BB61FB695B00032202FA03F3DB4338
:10358000BA691340BB613B68DA68FB695B0002FA09
:1035900003F3BA691343BB617B68BA699A607B68BD
:1035A0005B68BB610122FB6902FA03F3DB43BA6982
:1035B0001340BB613B685B681B0903F00102FB69B8
:1035C00002FA03F3BA691343BB617B68BA695A60B4
:1035D0003B685B6803F00303032B17D07B68DB6851
:1035E000BB61FB695B00032202FA03F3DB43BA69A8
:1035F0001340BB613B689A68FB695B0002FA03F306
:10360000BA691343BB617B68BA69DA603B685B687F
:1036100003F00303022B23D1FB69DA087B6808322D
:1036200053F82230BB61FB6903F007039B000F22B4
:1036300002FA03F3DB43BA691340BB613B681A69C2
:10364000FB6903F007039B0002FA03F3BA69134313
:10365000BB61FB69DA087B680832B96943F822105C
:103660007B681B68BB61FB695B00032202FA03F302
:10367000DB43BA691340BB613B685B6803F003023C
:10368000FB695B0002FA03F3BA691343BB617B6811
:10369000BA691A603B685B6803F44033002B00F0A2
:1036A000B4800023FB60604B5B6C5F4A43F4804353
:1036B00053645D4B5B6C03F48043FB60FB685B4AC7
:1036C000FB699B08023352F82330BB61FB6903F0AE
:1036D00003039B000F2202FA03F3DB43BA69134092
:1036E000BB617B68524A93422BD07B68514A93421C
:1036F00025D07B68504A93421FD07B684F4A934243
:1037000019D07B684E4A934213D07B684D4A93424E
:103710000DD07B684C4A934207D07B684B4A93425A
:1037200001D107230EE008230CE006230AE005235D
:1037300008E0042306E0032304E0022302E001235F
:1037400000E00023FA6902F0030292009340BA6994
:103750001343BB613549FB699B080233BA6941F8E1
:1037600023203B4B1B68BB613B69DB43BA691340B9
:10377000BB613B685B6803F48033002B03D0BA69FC
:103780003B691343BB61324ABB691360304B5B68D2
:10379000BB613B69DB43BA691340BB613B685B6853
:1037A00003F40033002B03D0BA693B691343BB61B8
:1037B000274ABB695360264B9B68BB613B69DB436F
:1037C000BA691340BB613B685B6803F48013002B4C
:1037D00003D0BA693B691343BB611D4ABB6993605F
:1037E0001B4BDB68BB613B69DB43BA691340BB61C0
:1037F0003B685B6803F40013002B03D0BA693B6994
:103800001343BB61124ABB69D360FB690133FB619F
:10381000FB690F2B7FF690AE00BF00BF2437BD467B
:103820005DF8047B704700BF00380240003801405B
:10383000000002400004024000080240000C024068
:10384000001002400014024000180240001C024018
:10385000003C014080B483B000AF78600B467B80B1
:1038600013467B707B78002B03D07A887B689A6143
:1038700003E07B881A047B689A6100BF0C37BD4661
:103880005DF8047B7047000080B584B000AF7860BD
:103890007B68002B01D101232BE17B6893F83D303D
:1038A000DBB2002B06D17B68002283F83C207868CD
:1038B000FEF70CFE7B68242283F83D207B681B68A2
:1038C0001A687B681B6822F001021A607B681B681B
:1038D0001A687B681B6842F400421A607B681B68A8
:1038E0001A687B681B6822F400421A6000F0E8FD49
:1038F000F8607B685B68814A934207D8FB68804A1E
:10390000934294BF01230023DBB206E0FB687D4AAB
:10391000934294BF01230023DBB2002B01D001238B
:10392000E7E0FB68784AA2FB03239B0CBB607B6843
:103930001B685B6823F03F017B681B68BA680A4319
:103940005A607B681B681B6A23F03F017B685B68D9
:103950006A4A934202D8BB68013309E0BB684FF45E
:10396000967202FB03F3694AA2FB03239B0901330E
:103970007A6812680B4313627B681B68DB6923F467
:103980004F4222F0FF027B685B685C498B4219D88A
:10399000FB68591E7B685B685B00B1FBF3F3591C45
:1039A00040F6FC730B40002B0AD0FB68591E7B6865
:1039B0005B685B00B1FBF3F30133C3F30B0351E02E
:1039C00004234FE07B689B68002B11D1FB68581ED5
:1039D0007B6859680B465B000B44B0FBF3F3013383
:1039E000C3F30B03002B0CBF01230023DBB212E057
:1039F000FB68581E7B6859680B469B000B44990076
:103A00000B44B0FBF3F30133C3F30B03002B0CBFE8
:103A100001230023DBB2002B01D0012322E07B68CD
:103A20009B68002B0ED1FB68581E7B6859680B46BB
:103A30005B000B44B0FBF3F30133C3F30B0343F41C
:103A400000430FE0FB68581E7B6859680B469B00DB
:103A50000B4499000B44B0FBF3F30133C3F30B03A6
:103A600043F44043796809681343CB617B681B6862
:103A70001B6823F0C0017B68DA697B681B6A1A4304
:103A80007B681B680A431A607B681B689B6823F489
:103A9000034323F0FF037A6811697A68D2681143FF
:103AA0007A6812680B4393607B681B68DB6823F0BD
:103AB000FF017B685A697B689B691A437B681B68B6
:103AC0000A43DA607B681B681A687B681B6842F0EF
:103AD00001021A607B6800221A647B68202283F846
:103AE0003D207B6800221A637B68002283F83E2019
:103AF000002318461037BD4680BD00BFA0860100D8
:103B00007F841E00FF083D0083DE1B43D34D6210FF
:103B100080B586B000AF78607B68002B01D10123AF
:103B200067E27B681B6803F00103002B75D0884BAC
:103B30009B6803F00C03042B0CD0854B9B6803F0AF
:103B40000C03082B12D1824B5B6803F48003B3F59E
:103B5000800F0BD17E4B1B6803F40033002B5BD02E
:103B60007B685B68002B57D1012342E27B685B686E
:103B7000B3F5803F06D1764B1B68754A43F480331A
:103B800013601DE07B685B68B3F5A02F0CD1704B10
:103B90001B686F4A43F4802313606D4B1B686C4AAB
:103BA00043F4803313600BE0694B1B68684A23F4CD
:103BB00080331360664B1B68654A23F480231360CF
:103BC0007B685B68002B13D0FEF7AAFE386108E023
:103BD000FEF7A6FE02463B69D31A642B01D90323E4
:103BE00007E25B4B1B6803F40033002BF0D014E0BA
:103BF000FEF796FE386108E0FEF792FE02463B694A
:103C0000D31A642B01D90323F3E1514B1B6803F44E
:103C10000033002BF0D100E000BF7B681B6803F08D
:103C20000203002B63D04A4B9B6803F00C03002B6C
:103C30000BD0474B9B6803F00C03082B1CD1444B63
:103C40005B6803F48003002B16D1414B1B6803F023
:103C50000203002B05D07B68DB68012B01D0012318
:103C6000C7E13B4B1B6823F0F8027B681B69DB0054
:103C7000374913430B603AE07B68DB68002B20D0A8
:103C8000344B01221A60FEF74BFE386108E0FEF764
:103C900047FE02463B69D31A022B01D90323A8E150
:103CA0002B4B1B6803F00203002BF0D0284B1B6842
:103CB00023F0F8027B681B69DB00254913430B6086
:103CC00015E0244B00221A60FEF72AFE386108E056
:103CD000FEF726FE02463B69D31A022B01D90323C5
:103CE00087E11B4B1B6803F00203002BF0D17B68BC
:103CF0001B6803F00803002B36D07B685B69002B40
:103D000016D0154B01221A60FEF70AFE386108E052
:103D1000FEF706FE02463B69D31A022B01D90323A4
:103D200067E10B4B5B6F03F00203002BF0D01BE04D
:103D3000094B00221A60FEF7F3FD38610EE0FEF732
:103D4000EFFD02463B69D31A022B07D9032350E14A
:103D50000038024000004742800E4742884B5B6FAC
:103D600003F00203002BEAD17B681B6803F0040315
:103D7000002B00F097800023FB75814B1B6C03F038
:103D80008053002B0FD10023BB607D4B1B6C7C4A02
:103D900043F0805313647A4B1B6C03F08053BB6079
:103DA000BB680123FB75774B1B6803F48073002B02
:103DB00018D1744B1B68734A43F480731360FEF789
:103DC000AFFD386108E0FEF7ABFD02463B69D31A50
:103DD000022B01D903230CE16A4B1B6803F48073A7
:103DE000002BF0D07B689B68012B06D1644B1B6FC6
:103DF000634A43F0010313671CE07B689B68052B53
:103E00000CD15F4B1B6F5E4A43F0040313675C4B9E
:103E10001B6F5B4A43F0010313670BE0584B1B6FAA
:103E2000574A23F001031367554B1B6F544A23F085
:103E3000040313677B689B68002B15D0FEF770FDA9
:103E400038610AE0FEF76CFD02463B69D31A41F285
:103E50008832934201D90323CBE0494B1B6F03F017
:103E60000203002BEED014E0FEF75AFD38610AE0A1
:103E7000FEF756FD02463B69D31A41F2883293425F
:103E800001D90323B5E03E4B1B6F03F00203002B67
:103E9000EED1FB7D012B05D1394B1B6C384A23F049
:103EA000805313647B689B69002B00F0A180344B26
:103EB0009B6803F00C03082B5CD07B689B69022B8A
:103EC00041D1314B00221A60FEF72AFD386108E02B
:103ED000FEF726FD02463B69D31A022B01D90323C4
:103EE00087E0274B1B6803F00073002BF0D17B6841
:103EF000DA697B681B6A1A437B685B6A9B011A4319
:103F00007B689B6A5B08013B1B041A437B68DB6A86
:103F10001B061B4913434B601B4B01221A60FEF723
:103F2000FFFC386108E0FEF7FBFC02463B69D31A50
:103F3000022B01D903235CE0114B1B6803F00073D3
:103F4000002BF0D054E0104B00221A60FEF7E8FC82
:103F5000386108E0FEF7E4FC02463B69D31A022B05
:103F600001D9032345E0064B1B6803F00073002BC7
:103F7000F0D13DE07B689B69012B07D1012338E03C
:103F80000038024000700040600047421B4B5B68F5
:103F9000FB607B689B69012B28D0FB6803F48002DF
:103FA0007B68DB699A4221D1FB6803F03F027B68A2
:103FB0001B6A9A421AD1FA6847F6C07313407A68AE
:103FC000526A9201934211D1FB6803F440327B683C
:103FD0009B6A5B08013B1B049A4207D1FB6803F014
:103FE00070627B68DB6A1B069A4201D0012300E005
:103FF000002318461837BD4680BD00BF0038024078
:1040000080B584B000AF786039607B68002B01D147
:104010000123CCE0684B1B6803F007033A689A421F
:104020000CD9654B3A68D2B21A70634B1B6803F027
:1040300007033A689A4201D00123B8E07B681B6805
:1040400003F00203002B20D07B681B6803F00403FD
:10405000002B05D0594B9B68584A43F4E0539360BA
:104060007B681B6803F00803002B05D0534B9B684B
:10407000524A43F460439360504B9B6823F0F00234
:104080007B689B684D4913438B607B681B6803F01A
:104090000103002B44D07B685B68012B07D1474BA1
:1040A0001B6803F40033002B19D101237FE07B68E8
:1040B0005B68022B03D07B685B68032B07D13F4B07
:1040C0001B6803F00073002B09D101236FE03B4B09
:1040D0001B6803F00203002B01D1012367E0374B7B
:1040E0009B6823F003027B685B68344913438B6051
:1040F000FEF716FCF8600AE0FEF712FC0246FB68C9
:10410000D31A41F28832934201D903234FE02B4B5B
:104110009B6803F00C027B685B689B009A42EBD1C2
:10412000254B1B6803F007033A689A420CD2224BD6
:104130003A68D2B21A70204B1B6803F007033A6842
:104140009A4201D0012332E07B681B6803F004032C
:10415000002B08D0194B9B6823F4E0527B68DB6886
:10416000164913438B607B681B6803F00803002B20
:1041700009D0124B9B6823F460427B681B69DB000B
:104180000E4913438B6000F089F802460B4B9B6885
:104190001B0903F00F030A49CB5C22FA03F3094A17
:1041A0001360094B1B681846FEF776FB0023184680
:1041B0001037BD4680BD00BF003C024000380240C1
:1041C00090D50208040000200800002080B58CB0C3
:1041D00000AFF860B9607A60FB68002B29D100233A
:1041E000BB612B4B1B6B2A4A43F001031363284B23
:1041F0001B6B03F00103BB61BB694FF48073FB6170
:1042000002233B620323BB6200237B620023FB6229
:1042100007F11C0319461F48FFF780F91C4B9B68E8
:1042200023F0EC62B9687B680B43194913438B6038
:1042300029E000237B61164B1B6B154A43F00403F6
:104240001363134B1B6B03F004037B617B694FF417
:104250000073FB6102233B620323BB6200237B628A
:104260000023FB6207F11C0319460B48FFF756F9C0
:10427000074B9B6823F078427B68D900BB680B43EF
:10428000034913438B6000BF3037BD4680BD00BF7C
:104290000038024000000240000802402DE9B04F03
:1042A00094B000AF00237B640023FB6400233B64D5
:1042B0000023BB64794B9B6803F00C03082B0DD0E3
:1042C000082B00F2E180002B02D0042B03D0DBE0AE
:1042D000734BBB64DBE0734BBB64D8E06F4B5B6834
:1042E00003F03F037B646D4B5B6803F48003002B9A
:1042F00063D06A4B5B689B090022BB63FA63BB6BAC
:10430000C3F308033B6300237B63D7E90C452246D4
:104310002B464FF000004FF00001590141EAD261F5
:10432000500102460B462146511A3961294663EB7A
:1043300001037B614FF000024FF00003D7E904ABAB
:1043400059468B01514643EA916351468A015146D1
:10435000B2EB0108594663EB01094FF000024FF040
:1043600000034FEAC90343EA58734FEAC802904674
:104370009946234618EB0303BB602B4649EB030326
:10438000FB604FF000024FF00003D7E902452946D9
:104390004B02214643EAD15321464A0210461946B0
:1043A0007B6C0022BB62FA62D7E90A23FBF760FF4D
:1043B00002460B461346FB6458E0384B5B689B098A
:1043C000002218461146C0F308033B6200237B62BB
:1043D000D7E9088942464B464FF000004FF00001F4
:1043E000590141EAD261500102460B464146B2EB07
:1043F000010A494663EB010B4FF000024FF0000346
:104400004FEA8B1343EA9A634FEA8A12B2EB0A042B
:1044100063EB0B054FF000024FF00003EB0043EAA3
:104420005473E20014461D464346E3183B604B4676
:1044300045EB03037B604FF000024FF00003D7E928
:10444000004529468B02214643EA915321468A02C0
:10445000104619467B6C0022BB61FA61D7E906233E
:10446000FBF706FF02460B461346FB640B4B5B68EB
:104470001B0C03F0030301335B003B64FA6C3B6CE1
:10448000B2FBF3F3BB6402E0054BBB6400BFBB6C43
:1044900018465037BD46BDE8B08F00BF0038024017
:1044A0000024F40000127A0080B400AF034B1B68B4
:1044B0001846BD465DF8047B704700BF040000202D
:1044C00080B500AFFFF7F0FF0246054B9B689B0AE3
:1044D00003F007030349CB5C22FA03F3184680BDBF
:1044E00000380240A0D5020880B582B000AF7860E5
:1044F0007B68002B01D101231CE07B685B79DBB278
:10450000002B05D17B6800221A717868FEF726F827
:104510007B6802225A717B681B681A687B681B687B
:1045200042F004021A607B6801225A717B68002203
:104530009A60002318460837BD4680BD80B584B018
:1045400000AF786039600023FB737B681B79012B17
:1045500001D1022344E07B6801221A717B685B79F8
:10456000DBB2012B33D17B6802225A71FEF7D8F9F6
:10457000B86018E0FEF7D4F90246BB68D31A022BE4
:1045800011D97B681B685B6803F00103012B0AD01B
:104590007B6801225A717B6802229A607B68002244
:1045A0001A7101231CE07B681B685B6803F0010340
:1045B000012BDFD17B681B689A687B68DA607B68B7
:1045C000DA683B681A607B6801225A7104E07B68F4
:1045D00004229A600123FB737B6800221A71FB7B23
:1045E00018461037BD4680BD80B582B000AF7860F8
:1045F0007B680C3319467868FFF7A0FF0346002B51
:1046000002D17B68DB6800E0002318460837BD460E
:1046100080BD80B582B000AF78607B68002B01D18F
:1046200001237BE07B685B6A002B08D17B685B68B9
:10463000B3F5827F09D07B680022DA6105E07B68F0
:1046400000221A617B6800225A617B6800229A620C
:104650007B6893F85130DBB2002B06D17B680022D7
:1046600083F850207868FDF79BFF7B68022283F86F
:1046700051207B681B681A687B681B6822F0400227
:104680001A607B685B6803F482727B689B6803F442
:1046900004431A437B68DB6803F400631A437B68B6
:1046A0001B6903F002031A437B685B6903F0010393
:1046B0001A437B689B6903F400731A437B68DB69C8
:1046C00003F038031A437B681B6A03F0800342EA55
:1046D00003017B689B6A03F400527B681B680A43F2
:1046E0001A607B689B691B0C03F004017B685B6AA2
:1046F00003F010027B681B680A435A607B681B68E2
:10470000DA697B681B6822F40062DA617B68002248
:104710005A657B68012283F8512000231846083728
:10472000BD4680BD80B588B000AFF860B9603B6021
:104730001346FB800023FB77FB6893F85030012B76
:1047400001D1022326E1FB68012283F85020FEF705
:10475000E7F8B861FB88FB82FB6893F85130DBB265
:10476000012B02D00223FB770BE1BB68002B02D0A8
:10477000FB88002B02D10123FB7702E1FB680322B7
:1047800083F85120FB6800225A65FB68BA681A63F7
:10479000FB68FA889A86FB68FA88DA86FB6800224A
:1047A0009A63FB6800229A87FB680022DA87FB681D
:1047B00000225A64FB6800221A64FB689B68B3F508
:1047C000004F0FD1FB681B681A68FB681B6822F05A
:1047D00040021A60FB681B681A68FB681B6842F499
:1047E00080421A60FB681B681B6803F04003402B83
:1047F00007D0FB681B681A68FB681B6842F0400220
:104800001A60FB68DB68B3F5006F4BD1FB685B682F
:10481000002B02D0FB8A012B3ED1FB681B6B1A8850
:10482000FB681B68DA60FB681B6B9A1CFB681A63E9
:10483000FB68DB8E9BB2013B9AB2FB68DA862BE009
:10484000FB681B689B6803F00203022B12D1FB6814
:104850001B6B1A88FB681B68DA60FB681B6B9A1C71
:10486000FB681A63FB68DB8E9BB2013B9AB2FB6864
:10487000DA8611E0FEF754F80246BB69D31A3A68AB
:104880009A4203D83B68B3F1FF3F02D13B68002B4B
:1048900002D10323FB7774E0FB68DB8E9BB2002B15
:1048A000CED14CE0FB685B68002B02D0FB8A012B69
:1048B00040D1FB681A6BFB681B680C3312781A70C6
:1048C000FB681B6B5A1CFB681A63FB68DB8E9BB290
:1048D000013B9AB2FB68DA862CE0FB681B689B6898
:1048E00003F00203022B13D1FB681A6BFB681B68F1
:1048F0000C3312781A70FB681B6B5A1CFB681A6326
:10490000FB68DB8E9BB2013B9AB2FB68DA8611E052
:10491000FEF706F80246BB69D31A3A689A4203D8F2
:104920003B68B3F1FF3F02D13B68002B02D1032368
:10493000FB7726E0FB68DB8E9BB2002BCDD1BA69FA
:104940003968F86800F012FB0346002B02D0FB68C0
:1049500020225A65FB689B68002B0AD100233B612B
:10496000FB681B68DB683B61FB681B689B683B61FD
:104970003B69FB685B6D002B02D00123FB7700E0F5
:1049800000BFFB68012283F85120FB68002283F8F6
:104990005020FB7F18462037BD4680BD80B586B0CD
:1049A00000AFF860B9601346FB800023FB75FB681D
:1049B00093F85030012B01D102239BE0FB680122C8
:1049C00083F85020FB6893F85130DBB2012B02D002
:1049D0000223FB7589E0BB68002B02D0FB88002B0B
:1049E00002D10123FB7580E0FB68032283F851208C
:1049F000FB6800225A65FB68BA681A63FB68FA888C
:104A00009A86FB68FA88DA86FB6800229A63FB685C
:104A100000225A64FB6800221A64FB6800229A870D
:104A2000FB680022DA87FB689B68B3F5004F0FD163
:104A3000FB681B681A68FB681B6822F040021A605A
:104A4000FB681B681A68FB681B6842F480421A60A6
:104A5000FB689B6C294A1A64FB689B6C284ADA63E2
:104A6000FB689B6C274ADA64FB689B6C00221A6522
:104A7000FB68986CFB681B6B1946FB681B680C3362
:104A80001A46FB68DB8E9BB2FEF764FA0346002BE6
:104A90000CD0FB685B6D43F01002FB685A65012384
:104AA000FB75FB68012283F851201EE0FB681B6840
:104AB0001B6803F04003402B07D0FB681B681A6893
:104AC000FB681B6842F040021A60FB681B685A686A
:104AD000FB681B6842F020025A60FB681B685A683A
:104AE000FB681B6842F002025A60FB68002283F8F0
:104AF0005020FB7D18461837BD4680BDD94D0008B3
:104B0000314D0008F54D000880B588B000AF7860E1
:104B10007B681B685B68FB617B681B689B68BB618B
:104B2000BB699B0903F00103002B0FD1BB6903F0A4
:104B30000103002B0AD0FB699B0903F00103002B42
:104B400004D07B681B6C78689847D7E0BB695B082A
:104B500003F00103002B0AD0FB69DB0903F001031A
:104B6000002B04D07B685B6C78689847C6E0BB6913
:104B70005B0903F00103002B0CD1BB699B0903F017
:104B80000103002B06D1BB691B0A03F00103002BB4
:104B900000F0B480FB695B0903F00103002B00F017
:104BA000AD80BB699B0903F00103002B23D07B6818
:104BB00093F85130DBB2032B11D07B685B6D43F06F
:104BC00004027B685A6500237B617B681B68DB6895
:104BD0007B617B681B689B687B617B690BE00023C2
:104BE0003B617B681B68DB683B617B681B689B687B
:104BF0003B613B6982E0BB695B0903F00103002B69
:104C000014D07B685B6D43F001027B685A6500231A
:104C1000FB607B681B689B68FB607B681B681A688D
:104C20007B681B6822F040021A60FB68BB691B0AA4
:104C300003F00103002B0CD07B685B6D43F008028E
:104C40007B685A650023BB607B681B689B68BB6000
:104C5000BB687B685B6D002B4FD07B681B685A6814
:104C60007B681B6822F0E0025A607B68012283F8AF
:104C70005120FB6903F00203002B04D1FB6903F010
:104C80000103002B34D07B681B685A687B681B6863
:104C900022F003025A607B68DB6C002B11D07B682A
:104CA000DB6C184A1A657B68DB6C1846FEF7AAF9BC
:104CB0000346002B05D07B685B6D43F040027B68A8
:104CC0005A657B689B6C002B16D07B689B6C0D4AE9
:104CD0001A657B689B6C1846FEF794F90346002B17
:104CE0000AD07B685B6D43F040027B685A6503E045
:104CF000786800F013F800E000BF00BF2037BD4621
:104D000080BD00BF354E000880B483B000AF78602E
:104D100000BF0C37BD465DF8047B704780B483B09C
:104D200000AF786000BF0C37BD465DF8047B70476C
:104D300080B586B000AF78607B689B6B7B61FDF7C8
:104D4000EFFD38617B681B681B6803F48073B3F563
:104D5000807F3BD07B691B685A687B691B6822F0A7
:104D600020025A607B691B685A687B691B6822F0C5
:104D700002025A603A696421786900F0F7F8034644
:104D8000002B05D07B695B6D43F020027B695A657F
:104D90007B699B68002B0AD10023FB607B691B6841
:104DA000DB68FB607B691B689B68FB60FB687B6959
:104DB0000022DA867B69012283F851207B695B6DD2
:104DC000002B03D07869FFF7A9FF02E07869FBF7B1
:104DD00029FF1837BD4680BD80B584B000AF78602C
:104DE0007B689B6BFB60F868FFF78EFF00BF103796
:104DF000BD4680BD80B584B000AF78607B689B6B9A
:104E0000FB60FB681B685A68FB681B6822F00302A2
:104E10005A60FB685B6D43F01002FB685A65FB68E3
:104E2000012283F85120F868FFF778FF00BF1037A0
:104E3000BD4680BD80B584B000AF78607B689B6B59
:104E4000FB60FB680022DA87FB680022DA86F868DC
:104E5000FFF764FF00BF1037BD4680BD80B588B046
:104E600000AFF860B9603B601346FB71FDF758FD79
:104E70000246BB6A9B1A3A681344FB61FDF750FD7A
:104E8000B861394B1B685B011B0DFA6902FB03F328
:104E90007B6154E03B68B3F1FF3F50D0FDF740FD2C
:104EA0000246BB69D31AFA699A4202D9FB69002B00
:104EB0003DD1FB681B685A68FB681B6822F0E00262
:104EC0005A60FB685B68B3F5827F11D1FB689B6811
:104ED000B3F5004F04D0FB689B68B3F5806F07D132
:104EE000FB681B681A68FB681B6822F040021A60A6
:104EF000FB689B6AB3F5005F0FD1FB681B681A68FB
:104F0000FB681B6822F400521A60FB681B681A6871
:104F1000FB681B6842F400521A60FB68012283F8A8
:104F20005120FB68002283F85020032317E07B699F
:104F3000002B01D10023FB617B69013B7B61FB6896
:104F40001B689A68BB681340BA689A420CBF012379
:104F50000023DBB21A46FB799A429BD10023184604
:104F60002037BD4680BD00BF0400002080B588B05A
:104F700002AFF860B9607A601B4B1B681B4AA2FB4A
:104F800003235B0D4FF47A7202FB03F37B61FB6832
:104F90005B68B3F5827F12D17B680093BB68002207
:104FA0008021F868FFF75AFF0346002B16D0FB68F4
:104FB0005B6D43F02002FB685A6503230FE07B69B9
:104FC000002B0AD07B69013B7B61FB681B689B68F7
:104FD00003F08003802BF2D000E000BF00231846CE
:104FE0001837BD4680BD00BF04000020819F5E16BB
:104FF000DFF834D00D480E490E4A002302E0D458A1
:10500000C4500433C4188C42F9D30B4A0B4C002310
:1050100001E013600432A242FBD3FDF7E5FB00F090
:1050200017F8FCF771FA704700C00120000000205B
:1050300074000020F4D502087400002090020020C3
:10504000FEE70000014B1868704700BF1000002009
:1050500070B50D4D0D4C641BA4100026A64209D15D
:105060000B4D0C4C00F08EFC641BA4100026A642D5
:1050700005D170BD55F8043B98470136EEE755F869
:10508000043B98470136F2E7ECD50208ECD502085C
:10509000ECD50208F0D5020802440346934200D141
:1050A000704703F8011BF9E70EB400B59CB01DABC7
:1050B000029006906FF00041094807910491094958
:1050C00053F8042B05910068019302A900F068F8D9
:1050D000029B00221A701CB05DF804EB03B070470D
:1050E000100000200802FFFF2DE9F0478E689E4265
:1050F00082460C4690461F4638D88A8912F4906F33
:1051000032D025680969A5EB0109656905EB4505FC
:1051100005EBD57501334B446D109D4238BF1D46DC
:10512000530531D5294600F063FB064650B90C23E0
:10513000CAF80030A38943F04003A3814FF0FF3049
:10514000BDE8F08721694A4600F0BEFAA38923F43E
:10515000906343F08003A381266165614E44A5EB13
:1051600009052660A5603E46BE4200D93E4620683D
:105170003246414600F0B6FAA3689B1BA360236841
:10518000334423600020DBE72A4600F0A5FB0646F7
:105190000028E1D12169504600F0BEFAC7E70000BF
:1051A0002DE9F04F98468B891B069DB007460D46AA
:1051B00014460ED50B6963B9402100F019FB286035
:1051C000286120B90C233B604FF0FF30D1E0402331
:1051D0006B610023099320238DF82930CDF80C80D2
:1051E0003023DFF8A8818DF82A304FF001092346DB
:1051F0009A4613F8012B0AB1252AF9D1BAEB040B10
:105200000BD05B46224629463846FFF76DFF01303A
:1052100000F0AA80099A5A4409929AF80030002BAB
:1052200000F0A28000234FF0FF32CDE905230AF100
:10523000010A049307938DF853301A9354460522BC
:1052400014F8011B5148FAF7C3FF049AD8B9D006E5
:1052500044BF20238DF85330110744BF2B238DF812
:1052600053309AF800302A2B15D0079A5446002064
:105270004FF00A0C214611F8013B303B092B4ED967
:10528000B0B1079214E0A0EB080309FA03F313434B
:105290000493A246D2E7039B191D1B680391002BC0
:1052A000BBBF5B4242F0020207930793B8BF049270
:1052B00023782E2B0CD163782A2B35D1039B1A1D12
:1052C0001B680392002BB8BF4FF0FF3302340593E5
:1052D000DFF8C8A0217803225046FAF779FF40B1E1
:1052E0004023A0EB0A0003FA00F0049B03430134BF
:1052F000049314F8011B26488DF828100622FAF7AB
:1053000067FF002838D0234B1BBB039B073323F0D8
:10531000070308330393099B3344099367E70CFBA6
:1053200002320C460120A5E70023013405931946FB
:105330004FF00A0C204610F8012B303A092A03D905
:10534000002BC5D00591C3E70CFB012104460123C6
:10535000F0E703AB00932A460F4B04A93846AFF39E
:105360000080421C0646D6D1AB895B063FF52CAFC8
:1053700009981DB0BDE8F08F03AB00932A46064B99
:1053800004A9384600F07AF8EBE700BFB0D5020870
:10539000BAD5020800000000E9500008B6D502089E
:1053A0002DE9F047164699468A680B69DDF820809A
:1053B0009342B8BF1346336091F8432007460C462A
:1053C0000AB1013333602368990642BF3368023360
:1053D0003360256815F0060506D104F1190AE36863
:1053E00032689B1AAB4226DC94F84320131E2268D5
:1053F00018BF012392062BD404F1430249463846D4
:10540000C04701301ED02368E568326803F0060308
:10541000042B08BFAD1AA36822690CBF25EAE57505
:1054200000259342C4BF9B1AED1800261A34B542DA
:105430001AD1002008E00123524649463846C047A9
:10544000013003D14FF0FF30BDE8F0870135C6E7EA
:10545000E1185A1C302081F84300224494F845108A
:1054600082F843100233C7E70123224649463846F3
:10547000C0470130E6D00136D9E700002DE9FF47EB
:105480000F7E0C9D782F914680460C469A4601F17E
:10549000430207D8622F0AD8002F00F0D880582F77
:1054A00000F0A38004F1420584F842703AE0A7F1CD
:1054B0006303152BF6D801A151F823F01555000808
:1054C00029550008A5540008A5540008A554000853
:1054D000A554000829550008A5540008A554000843
:1054E000A5540008A5540008355600085955000871
:1054F00017560008A5540008A55400085756000880
:10550000A554000859550008A5540008A5540008E2
:105510001F5600082B681A1D1B682A6004F14205FB
:1055200084F842300123A3E020682968060601F1CF
:1055300004030AD50E682B60002E03DA2D23764271
:1055400084F843305E480A2319E00E682B6010F09F
:10555000400F18BF36B2EFE72B682068191D29608D
:10556000010601D51E6802E04606FBD51E88544898
:105570006F2F0CBF08230A23002184F843106568AD
:10558000A560002DA2BF216821F0040121600EB9A1
:10559000002D4DD01546B6FBF3F103FB1167C75D37
:1055A00005F8017D3746BB420E46F4D9082B0BD1D6
:1055B0002368DE0708D5236961689942DEBF30237E
:1055C00005F8013C05F1FF35521B2261CDF800A022
:1055D0004B4603AA21464046FFF7E2FE01304CD17C
:1055E0004FF0FF3004B0BDE8F087354881F84570D2
:1055F0002968236851F8046B29601D0614D5DF075C
:1056000044BF43F0200323601EB9236823F0200326
:1056100023601023B0E7236843F02003236078233E
:10562000284884F84530E3E7590648BFB6B2E6E7B4
:105630001546BBE72B6826686169181D286035068A
:105640001B6801D5196002E07006FBD519800023A4
:1056500023611546BAE72B681A1D2A601D68626827
:1056600000212846FAF7B4FD08B1401B606063686A
:105670002361002384F84330A8E723692A4649467A
:105680004046D0470130ABD023689B0713D4E06875
:10569000039B9842B8BF1846A4E701233246494607
:1056A0004046D04701309BD00135E36803995B1A2F
:1056B000AB42F2DCEBE7002504F11906F5E700BF89
:1056C000C1D50208D2D502080A44914200F1FF3345
:1056D00000D1704710B511F8014B03F8014F91420A
:1056E000F9D110BD884210B501EB020402D9844201
:1056F000234607D8431EA14208D011F8012B03F816
:10570000012FF8E7024401468A4200D110BD13F888
:10571000014D02F8014DF7E737B5002944D051F8A3
:10572000043C0190002BA1F10404B8BFE41800F080
:1057300013F91E4A0198136833B96360146003B00B
:10574000BDE8304000F00EB9A34208D925686119C0
:105750008B4201BF19685B6849192160EDE71A4661
:105760005B680BB1A342FAD911685518A5420BD159
:10577000246821445418A3421160E0D11C685B687E
:10578000536021441160DAE702D90C230360D6E7A5
:10579000256861198B4204BF19685B68636004BFA8
:1057A000491921605460CAE703B030BD800200206F
:1057B00070B50E4E0C463168054611B900F0BCF8C4
:1057C00030602146284600F0B7F8431C0AD0C41CBC
:1057D00024F00304A04207D0211A284600F0ACF8B8
:1057E000013001D14FF0FF34204670BD840200200B
:1057F0002DE9F041CD1C25F0030508350C2D38BFEF
:105800000C25002D074601DBA94205D90C233B607E
:1058100000263046BDE8F0812E4E00F09DF833683A
:105820001C4634BB29463846FFF7C2FF431C0446DA
:105830004DD134682646002E40D123683146384683
:1058400004EB030800F078F880453AD1216803356D
:105850006D1A25F0030508350C2D38BF0C25294697
:105860003846FFF7A5FF01302BD023682B44236077
:105870000EE02268521B1ED40B2A16D96119A342CE
:10588000256018BF5960636808BF316062514B6082
:10589000384604F10B0600F065F826F00706231DD4
:1058A000F21AB6D09B1BA350B3E76268A3420CBFA9
:1058B00032605A60ECE723466468B2E734467668A3
:1058C000B9E70C233B60384600F04CF8A1E72560AF
:1058D000DEE700BF800200202DE9F041804614463B
:1058E0000E4621B9BDE8F0411146FFF781BF2AB944
:1058F000FFF712FF25462846BDE8F08100F038F892
:105900008442074602D8B4EB500F12D821464046D5
:10591000FFF76EFF05460028EDD0BC422246314617
:1059200028BF3A46FFF7D0FE31464046FFF7F4FE67
:10593000E1E73546DFE7000038B5064D00230446B1
:1059400008462B60FCF724FF431C02D12B6803B1EF
:10595000236038BD88020020014800F011B800BF64
:105960008C020020014800F00CB800BF8C0200201F
:1059700051F8043C181F002BBCBF0B58C0187047CF
:1059800070477047F8B500BFF8BC08BC9E4670472A
:0C599000F8B500BFF8BC08BC9E4670478C
:10599C00436F756E74696E67206D756C7469706C8D
:1059AC0065207365676D656E7473206174206F6E0E
:1059BC0063650000436F756E74696E673A202564E9
:1059CC0000000000436F756E74696E672073696E1A
:1059DC00676C65207365676D656E740052656374E2
:1059EC00616E676C6520616C69676E6D656E7420A5
:1059FC00636865636B00000052616E646F6D6C7957
:105A0C0020706C6163656420616E642073697A65D3
:105A1C0064000000486F72697A6F6E74616C20616B
:105A2C006E6420566572746963616C206C696E6576
:105A3C0073000000436972636C65730046696C6C9B
:105A4C00656420436972636C65730000526563740E
:105A5C00616E676C6573000046696C6C65642052FE
:105A6C00656374616E676C6573000000536C6F77CF
:105A7C0020647261772062792073656C6563746948
:105A8C006E670000616E6420616472657373696E89
:105A9C006720706978656C730000000052616E6459
:105AAC006F6D20706F736974696F6E20616E642006
:105ABC00636F6C6F72000000353030303030207006
:105ACC006978656C73000000436F6C6F72206772AD
