:020000040800F2
:1000000078070020290200084F140008AF110008EB
:100010004D1400081F040008CD190008000000005E
:10002000000000000000000000000000A116000811
:100030003D050008000000007D140008BD17000801
:10004000430200084302000843020008430200087C
:10005000430200084302000843020008430200086C
:10006000430200084302000843020008430200085C
:10007000430200084302000843020008430200084C
:10008000430200084302000843020008430200083C
:10009000430200084302000843020008430200082C
:1000A000430200084302000843020008430200081C
:1000B000430200084302000843020008430200080C
:1000C00043020008430200084302000843020008FC
:1000D00043020008430200084302000843020008EC
:1000E00043020008430200084302000843020008DC
:1000F00043020008430200084302000843020008CC
:1001000043020008430200084302000843020008BB
:1001100043020008430200084302000843020008AB
:10012000430200084302000843020008430200089B
:10013000430200084302000843020008430200088B
:10014000430200084302000843020008430200087B
:10015000430200084302000843020008430200086B
:10016000430200084302000843020008430200085B
:100170004302000843020008430200080000000098
:10018000430200084302000800F002F800F03CF8C7
:100190000AA090E8000C82448344AAF10107DA45E2
:1001A00001D100F031F8AFF2090EBAE80F0013F0F8
:1001B000010F18BFFB1A43F001031847381A00005B
:1001C000581A0000103A24BF78C878C1FAD85207EC
:1001D00024BF30C830C144BF04680C6070470000C1
:1001E0000023002400250026103A28BF78C1FBD840
:1001F000520728BF30C148BF0B6070471FB501F0E0
:10020000E5FC1FBD10B510BD00F0CFF81146FFF79B
:10021000F5FF01F0EDFB00F0EDF803B4FFF7F2FF9E
:1002200003BC00F0F5F80000094880470948004782
:10023000FEE7FEE7FEE7FEE7FEE7FEE7FEE7FEE796
:10024000FEE7FEE704480549054A064B70470000F3
:10025000391800088901000878010020780700207B
:10026000780300207803002053EA020C00F0698034
:100270002DE9F04B4FF00006002B1FBFB3FA83F5BA
:1002800003FA05F424FA05F65E4012BF1643B2FAEB
:1002900082F502FA05F4C5F120051EBF22FA05FC1D
:1002A00044EA0C04203556EA044C4FEA144418BFC3
:1002B000641C4FF000084FF00009904271EB030CF2
:1002C00039D3002919BFB1FA81F701FA07F6B0FA5C
:1002D00080F700FA07F6C7F120071EBF20FA07FCD7
:1002E00046EA0C062037B6FBF4FCA7EB0507103FE7
:1002F00007F01F0BCBF120060CFA0BFB2CFA06F6CD
:1003000044BFB3460026202FA4BF5E464FF0000B2B
:100310005BEA060C08BF4FF0010B19EB0B09ABFBB6
:10032000027C48EB0608C01B06FB02CC0BFB03CC8F
:1003300071EB0C01C1E70B46024641464846BDE859
:10034000F08B13B54FF000004FF00001AFF30080C9
:10035000BDE81C4070474FF0000200B513469446BC
:100360009646203922BFA0E80C50A0E80C50B1F10D
:100370002001BFF4F7AF090728BFA0E80C5048BF21
:100380000CC05DF804EB890028BF40F8042B08BFBF
:10039000704748BF20F8022B11F0804F18BF00F8BB
:1003A000012B7047704770477047754600F02CF876
:1003B000AE4605006946534620F00700854618B052
:1003C00020B5FFF73FFFBDE820404FF000064FF09B
:1003D00000074FF000084FF0000B21F00701AC467A
:1003E000ACE8C009ACE8C009ACE8C009ACE8C00999
:1003F0008D46704710B50446AFF300802046BDE837
:100400001040FFF70ABF00000048704718010020A5
:1004100001491820ABBEFEE7260002007047FEE748
:100420002DE9F04387B000241B4901940294039402
:100430000494096805940646009100F001FADFF87B
:100440005C80FF21054688F800104FF47A77E94672
:100450000BE0012205A9124800F0F0FD28B99DF833
:10046000141009F80410641CE4B200F0E9F9401B10
:100470003B46984201D2B442EBD30CB1B44203D212
:10048000FE2007B0BDE8F0839DF809009DF80B2021
:1004900088F80020F5E70000D81B000800000020C5
:1004A0004C00002070B500F0CBF9044641F28835CD
:1004B000164E0AE001F04AF901F03CF90C20FFF772
:1004C000AFFF022801D0A8B90CE000F0B9F9001B79
:1004D000A84205D20121304600F0A8F90028E9D051
:1004E000022070BD01F032F901F0E8F80C20FFF7AE
:1004F00097FF08B1FE2070BD01F028F901F002F964
:10050000BDE870401020FFF78BBF000000000240E4
:1005100070B50122084DD4022146284600F08BF91F
:100520004FF47A7000F00BF821462846BDE8704081
:10053000002200F080B90000000C0240704700214A
:1005400003E000BF00BF00BF491C8142F9D37047E0
:1005500010B501F0FBF801F0E1F80C20FFF760FFA7
:10056000002840F2DC544FF001014FF0000010D0A1
:1005700000F0A6FE10A000F0B1FE204600F04CF8FE
:100580000121002000F09CFEBDE810400FA000F00B
:10059000A5BE00F095FE12A000F0A0FE204600F0DF
:1005A0003BF80121002000F08BFE08A000F096FE31
:1005B00010490020487010BD20434F204C4F492067
:1005C00058415920524120200000000020202020C6
:1005D000202020202020202020202020000000009B
:1005E00020444120584F412056414E20544159202B
:1005F000000000000000002010B501F0A7F801F095
:1006000051F80E20FFF70CFF08B1FF2010BD014884
:10061000007810BD0000002070B5044600F010F90D
:100620000546601C02D004480078044400F008F934
:10063000401BA042FAD370BD3C0000202DE9F84FCA
:10064000DFF8BCA10022012503264FF00F090AF1B3
:10065000040BAAF1040E00BF0B6805FA02F4234054
:10066000A34270D10F7907F00307012F01D0022FA9
:1006700016D187684FEA420806FA08FC27EA0C07F9
:10068000D1F80CC00CFA08FC4CEA070CC0F808C002
:100690004768A7430C79C4F3001494403C4344607A
:1006A0000C79E443A4070AD0C4684FEA420C06FA66
:1006B0000CF7BC438F6807FA0CF72743C7600C7927
:1006C00004F00304022C12D1D40800EB840CDCF8F3
:1006D00020405707FF0E09FA07F824EA0804D1F86A
:1006E000108008FA07F848EA0408CCF8208004686B
:1006F0004FEA420C06FA0CF7BC430F7907F00307E8
:1007000007FA0CF7274307604C6814F4403F70D099
:100710003C4C276847F480472760246822F0030791
:1007200004F480440094384C07EB040CDCF80848CF
:1007300097074FEA177809FA08F7BC43334FB842D6
:1007400002D1002724E054E0314FB84201D1012703
:100750001EE0304FB84201D1022719E02E4FB842B7
:1007600001D1032714E02D4FB84201D104270FE037
:100770002B4FB84201D105270AE02A4FB84201D1D8
:10078000062705E0284FB84201D1072700E00827D7
:1007900007FA08F72743CCF80878DAF800405746FC
:1007A000D1F804C09C435FEACC2C00D51C433C60CC
:1007B000DBF800405F46D1F804C09C435FEA8C2C14
:1007C00000D51C433C60DEF800407746D1F804C0F9
:1007D0009C435FEA8C3C00D51C433C60084F083FBB
:1007E0003C68D1F804C09C435FEACC3C00D51C4374
:1007F0003C60521C102AFFF42FAFBDE8F88F0000B8
:10080000083C0140443802400030014000000240F2
:100810000004024000080240000C024000100240A8
:100820000014024000180240001C02400069084009
:1008300000D0012070470AB1816170470904FBE7CD
:1008400001488068704700003C0000200248816831
:1008500002781144816070473C0000200B4810B5BD
:10086000016841F400710160016841F48061016038
:10087000016841F480710160032000F061F80F20ED
:1008800000F006F800F024F8002010BD003C024003
:1008900070B50D4D04464FF47A712878B1FBF0F035
:1008A0000A490968B1FBF0F000F0FCFA48B9102CD5
:1008B00007D200222146501E00F022F800206C6072
:1008C00070BD012070BD00003C00002048000020E9
:1008D0000A4808B5016841F480410160006800F4ED
:1008E000804000900548001F016841F08051016080
:1008F000006800F08050009008BD000044380240BD
:10090000F0B40E4B1B680C46C3F30223C3F107057A
:10091000042D00D90425191D072901D2002300E068
:10092000DB1E012606FA05F1491E214099409E4032
:10093000761E16403143F0BC01F049B80CED00E0E2
:10094000064900F0070208684FF6FF03184040EA26
:100950000220034A10430860704700000CED00E0DD
:100960000000FA052DE9F0470E46050065D0DFF8D6
:100970001481D8F80000F7B200F00700B04207D2A7
:1009800088F80070D8F8000000F00700B04254D199
:1009900028683D4C810712D5400703D5206840F4F4
:1009A000E05020602878000703D5206840F46040BC
:1009B00020602068A96820F0F000084320602878B3
:1009C000C0072DD0304968680839012812D00228A4
:1009D00013D0032811D00968890700292DDA21686E
:1009E00021F0030101432160FFF72AFF814641F214
:1009F000883A0EE009688903EFE709688901ECE7A6
:100A0000FFF71EFFA0EB0901514502D90320BDE805
:100A1000F0872068696800F00C00B0EB810FEFD11F
:100A2000D8F80010404601F00701B14207D907701D
:100A3000006800F00700B04201D00120E7E7287805
:100A4000400705D52068E96820F4E050084320609D
:100A50002878000706D52068296920F4604040EA1C
:100A6000C100206000F038F82168084AC1F3031182
:100A7000515CC8400649086006480068FFF708FF57
:100A80000020C4E7003C024008380240DC1B00089C
:100A9000480000204000002004480549006809681B
:100AA000044AC1F38221515CC840704748000020CD
:100AB00008380240EC1B0008044805490068096832
:100AC000044AC1F34231515CC840704748000020DD
:100AD00008380240EC1B0008154810B5006810F0FB
:100AE0000C02144813D04110042A0FD0082A0ED14A
:100AF0000F4C241F2268236802F03F025B0207D5D7
:100B00002068C0F38810A0FB010106E0084610BD74
:100B10002168C1F38811A1FB00010023FFF7A4FBAA
:100B20002168C1F30141491C4900B0FBF1F010BD3F
:100B3000083802400024F4002DE9F84F04006ED07C
:100B40002078DFF84C93C007A9F104054AD009F1D9
:100B500004000168C1F38101012908D00068C0F3D5
:100B6000810002280AD1D9F80000400206D5286881
:100B7000800337D560680028E1D033E06068B0F5C5
:100B8000803F10D0B0F5A02F286810D020F480301E
:100B90002860286820F4802028606068A8B1FFF7EA
:100BA0004FFE06460DE0286840F48030F4E740F43C
:100BB00080202860F7E700BFFFF742FE801B642813
:100BC00073D828688003F7D50CE0FFF739FE064696
:100BD00005E000BFFFF734FE801B6428F0D82868CA
:100BE0008003F7D42078DFF8AC8280074FF0000A4A
:100BF0003ED5A748001D016811F00C0F08D0006811
:100C0000C0F3810002280BD1D9F80000400207D4BC
:100C10002868800716D5E068012800D112E033E18A
:100C2000E068B8B10120C8F80000FFF709FE0646E9
:100C300005E000BFFFF704FE801B0228C0D828682B
:100C40008007F7D52868216920F0F80040EAC10044
:100C500028600DE0C8F800A0FFF7F2FD064604E0AA
:100C6000FFF7EEFD801B02281FD828688007F7D405
:100C70002078000722D5864F87486169703771B1A7
:100C800001210160FFF7DCFD064604E0FFF7D8FD17
:100C9000801B022809D838688007F7D50EE0C0F815
:100CA00000A0FFF7CDFD064605E082E0FFF7C8FD96
:100CB000801B02287DD838688007F7D42078400749
:100CC00068D5DFF8CCB100270BF13C0BDBF8000056
:100CD000C0000BD4DBF8001041F08051CBF80010BD
:100CE000DBF80000012700F0805000906B4E306868
:100CF000C00510D4306840F480703060FFF7A0FD6C
:100D0000009005E0FFF79CFD0099401A022850D89A
:100D10003068C005F6D55E4EA0686C3601280FD04D
:100D20000528306810D020F001003060306820F0D5
:100D300004003060A068B8B1FFF782FD00900FE0BA
:100D4000306840F00100F4E740F004003060F7E75D
:100D5000FFF776FD0099411A41F28830814266D84A
:100D600030688007F4D50EE0FFF76AFD009007E0D9
:100D7000FFF766FD0099411A41F28830814256D84A
:100D800030688007F4D42FB1DBF8001021F08051D7
:100D9000CBF80010A069C8B33D49091D0968C1F32B
:100DA000810102294AD00228504607D0C8F86000C5
:100DB00000E03CE0FFF744FD04463BE04746C8F84E
:100DC0006000FFF73DFD064605E000BFFFF738FD78
:100DD000801B02282BD828688001F7D4D4E90701AA
:100DE0000843A16A2E4A490802EB0141626A41EABE
:100DF0008211084394F82C1040EA0161C9F80010F0
:100E000001203866FFF71CFD044606E03EE000BF07
:100E1000FFF716FD001B022809D828688001F7D5C6
:100E200034E000BFFFF70CFD001B022802D90320AD
:100E3000BDE8F88F28688001F4D427E00128F7D0B6
:100E4000D9F80000E26900F4800191421CD1226AC5
:100E500000F03F01914217D147F6C071626A01402C
:100E6000B1EB821F10D1A26A4FF0FF3300F4403182
:100E700003EB5202B1EB024F06D194F82C1000F0B4
:100E80007060B0EB016F01D00120D1E70020CFE707
:100E90000438024000004742800E47420070004084
:100EA0000000FFFF10B5401EB0F1807F01D301208C
:100EB00010BD4FF0E02460610F21601700F087FD46
:100EC0000020A06107202061002010BD70B5040043
:100ED00004D094F83D00002510B106E0012070BD5B
:100EE00084F83C50204600F023F8242084F83D008C
:100EF0002068C16821F40051C160204600F0A4FCC4
:100F00002068016921F4904101612068416921F064
:100F10002A0141612068C16841F40051C160256423
:100F2000202084F83D0084F83E00002070BD0000C1
:100F3000F0B587B0044614216846FFF70CFA39492A
:100F4000374827680024374A10390225032687428C
:100F50002BD1106840F480101060106800F48010ED
:100F60000590086840F004000860086800F004007C
:100F70000590086840F008000860086802AB00F0BF
:100F8000080005908814CDE90005082783E8D00003
:100F900069462548FFF752FB0420CDE9000502AB66
:100FA000694683E8D00021481AE0DFF884C00723AF
:100FB0002048674518D11B4A121D176847F01007D3
:100FC0001760126802F0100205920A6842F00102EE
:100FD0000A60096801F0010105914FF4C06118E051
:100FE000FFF72CFB07B0F0BDDFF84CC06745F9D127
:100FF000176847F400371760126802F40032059250
:101000000A6842F001020A60096801F001010591D5
:101010000C21CDE900150294CDE903636946DFE7B1
:10102000005000404038024000080240000C0240DE
:101030000010014000000240004400402DE9F84F3C
:10104000044690F83E009A4616460D46202853D195
:10105000FDB1F6B194F83C0001284DD0012084F890
:101060003C0000272764222084F83E002763FFF716
:10107000E7FBA6858146E685A0684FF48058404589
:1010800001D1206940B12E465FF0000584F83C7024
:1010900027E00120BDE8F88F0026F7E74B46002245
:1010A00020212046CDF800A000F054FC08B1032018
:1010B000F0E726B1A06840451BD038B108E02068B1
:1010C0004068C0F3080025F8020B07E0206980B1F2
:1010D0002068406800F07F0006F8010BE08D401E9C
:1010E000E085E08D0028D9D1202084F83E00002042
:1010F000D0E720684068EFE70220CBE72DE9F8430E
:10110000044690F83D001F4616460D4620284CD157
:10111000C5B1BEB194F83C00012846D0012084F846
:101120003C004FF00008C4F84080212084F83D00C6
:10113000FFF786FBA6848146E684A068B0F5805F51
:1011400003D004E00120BDE8F883206928B12E46D1
:101150005FF0000584F83C800EE00026FAE780216D
:10116000204600F0F7FBA0B9AEB116F8010B2168DC
:101170004860E08C401EE084E08C4B464FF000025B
:1011800000970028EBD14FF04001204600F0E2FB31
:1011900030B10320D7E735F8020BC0F30800E6E7CB
:1011A000202084F83D000020CDE70220CBE7FEE7B9
:1011B00010B5012000F006F8BDE810400220FFF74E
:1011C0002BBA000010B5044600224FF48061054898
:1011D000FFF731FB200900F08DF82046BDE81040F4
:1011E00000F088B80004024010B5044601229102C4
:1011F0000548FFF720FB200900F07CF82046BDE8F9
:10120000104000F077B800000004024000204FF4C6
:101210007A71401C80B28842FBD3704710B53220EF
:10122000FFF7FAF9164C00224FF480612046FFF7D1
:1012300002FB0022E1142046FFF7FDFA032000F034
:1012400059F80520FFF7E8F9032000F053F80520CE
:10125000FFF7E2F9032000F04DF80120FFF7DCF979
:10126000022000F047F82820FFF7ACFF0C20FFF722
:10127000A9FFFFF79DFFBDE810400620FFF7A2BFC2
:101280000004024070B50D4D4FF400640022214669
:101290002846FFF7D0FAFFF7B9FF0122214628467A
:1012A000FFF7C9FAFFF7B2FF002221462846FFF7F1
:1012B000C2FABDE870400120FFF7AEB90004024059
:1012C00008B505A2126800921DF801100844C0B2CA
:1012D000FFF778FF08BD000080C094D470B50546C4
:1012E000002403E0FFF780FF641CE4B2285D0028BF
:1012F000F8D170BD70B50446164DC0074FF480514B
:1013000001D0012200E000222846FFF794FAA0074E
:101310004FF4005101D5012200E000222846FFF7DA
:101320008AFA60074FF4804101D5012200E00022D3
:101330002846FFF780FA20074FF4004101D501222B
:1013400000E000222846FFF776FABDE87040FFF77C
:1013500099BF0000000402402DE9F04786B0142137
:101360006846FEF7F8FF34480024016841F00401A4
:101370000160016801F004010591016841F08001FC
:101380000160016801F080010591016841F00101EF
:101390000160016801F001010591016841F002015D
:1013A0000160016801F002010591016841F0080146
:1013B00001600068DFF8848000F008004FF40055F9
:1013C0000590002229464046FFF735FADFF8709075
:1013D0004FF47C46002231464846FFF72CFADFF8EE
:1013E00064A04FF47847002239465046FFF723FAAD
:1013F00000950125CDE90154694640460394FFF765
:101400001DF93320CDE9000469460F480294FFF727
:1014100015F90096CDE90154694648460394FFF753
:101420000DF90097CDE90154694650460394FFF742
:1014300005F906B0BDE8F0873038024000080240E8
:1014400000040240000C024000000240FEE7FEE7FC
:1014500070B50122084DD40221462846FFF7EBF96A
:1014600040F63400FFF76BF821462846BDE870408F
:101470000022FFF7E0B90000000C024070470000B6
:1014800070B501210020FFF71BFF24A0FFF726FF06
:101490004FF47A763046FFF7BFF8254C6078401C51
:1014A00000F070F8050017D00A2D4FF001014FF041
:1014B00000002FD0FFF704FF1EA000BFFFF70EFFB4
:1014C0003046FFF7A9F801210020FFF7F9FE1EA022
:1014D000FFF704FF284670BD01210020FFF7F0FE52
:1014E0001EA0FFF7FBFE3046FFF796F80121002013
:1014F000FFF7E6FE14A0FFF7F1FE6078401CC0B2D3
:101500006070642801D10120607040F2DC50FFF768
:1015100083F8DFE7FFF7D4FE15A0CFE744414E473D
:10152000204B592056414E205441592000000000C4
:101530000000002020434F204C4F492058415920A3
:1015400052412020000000002020202020202020C8
:1015500020202020202020200000000044414E4771
:10156000204B5920542E434F4E47202000000000AE
:1015700032205654204B484F4E47204B484F502066
:101580000000000070B50546FFF75AF90646012134
:101590000020FFF795FE33A0FFF7A0FE41F288344C
:1015A0000CE000BF00F0D2F800F0C4F80C20FEF709
:1015B00037FF022802D0002851D105E0FFF740F99B
:1015C000801BA042EED34AE000F0C0F800F076F8AD
:1015D0000C20FEF725FF002841D10121FFF770FE06
:1015E00025A0FFF77BFE4FF4FA60FFF715F8FFF731
:1015F00027F9064601210020FFF762FE23A0FFF72E
:101600006DFE0AE000F0A2F800F094F80C20FEF75E
:1016100007FF022801D010BB05E0FFF711F9801B7E
:10162000A042EFD31BE000F091F800F053F80C203B
:10163000FEF7F6FE98B900F089F800F057F80C2094
:10164000FEF7EEFE0A280BD048B900F07FF82846D6
:1016500000F088F80C20FEF7E3FE002800D0FE2002
:1016600070BD000048415920444154204E474F4E20
:1016700020544159000000002048415920424F2089
:101680005441592052412020000000004441542080
:101690004C4149204E474F4E205441590000000014
:1016A000704700004FF47A73062202490248FFF7A0
:1016B00025BD00001A0000204C0000204FF47A7372
:1016C000072202490248FFF719BD00002000002050
:1016D0004C0000204FF47A73072202490248FFF7BA
:1016E0000DBD0000270000204C0000204FF47A734D
:1016F000062202490248FFF701BD00000E0000204B
:101700004C0000204FF47A730B2202490248FFF785
:10171000F5BC00002E0000204C0000204FF47A732E
:10172000062202490248FFF7E9BC0000140000202D
:101730004C0000204FF47A73062202490248FFF75A
:10174000DDBC0000080000204C0000204FF47A733C
:10175000062202490248FFF7D1BC00000200002027
:101760004C0000200EB500220121009201928DF85C
:10177000001002928DF80120531C06228DF80220E1
:1017800013448DF803201A448DF804101144020A02
:101790008DF805201144C0B28DF806000844010AF6
:1017A0008DF807108DF808004FF47A730922694606
:1017B0000148FFF7A3FC0EBD4C000020FFF746B820
:1017C00030B593B030216846FEF7C5FD14210CA852
:1017D000FEF7C1FD16480024016841F08051016008
:1017E000006800F0805011901248016841F4804177
:1017F00001600068012500F48040119028040694DF
:10180000CDE900506846FFF797F908B172B6FEE7D8
:101810000F200C90CDE90D540F9400210CA81094CA
:10182000FFF7A0F8002801D072B6FEE713B030BD74
:1018300040380240007000400248016841F47001E5
:101840000160704788ED00E070B5044600680169EA
:10185000E26821F44051114301612169A068E26905
:1018600008436169114308432168CA6849F20C635F
:101870009A430243CA6020684169A26921F4407119
:101880001143416131492068884202D03049884281
:1018900002D1FFF711F901E0FFF7FEF8E26900233A
:1018A000192164253226B2F5004F626828D0A0FBCA
:1018B0000101930F9200FEF7D7FC0146B0FBF5F053
:1018C0006FF01802504301EB800006EB0010B0FBF4
:1018D000F5F000F0F002B1FBF5F002EB0012B1FB05
:1018E000F5F06FF01803584301EB800006EB001091
:1018F000B0FBF5F000F00F0021681044886070BD67
:10190000A0FB010192185B41FEF7AEFC0146B0FB63
:10191000F5F00201B1FBF5F06FF01803584301EB4D
:10192000800006EBC000B0FBF5F000F0F80002EB21
:101930004002B1FBF5F0584301EB800006EBC0001C
:10194000B0FBF5F000F00700D6E700000010014002
:10195000001401402DE9F041984617460E46044612
:10196000069D27E0681C25D02DB1FEF769FFA0EB8E
:101970000800A8421ED920680C3050E8001F21F44E
:10198000D07140E80012002AF5D12068143050E8E8
:10199000001F21F0010140E80012002AF5D12020AB
:1019A00084F83D0084F83E00002084F83C000320C9
:1019B000BDE8F0812068006836EA000004D000200D
:1019C000B842CFD00020F3E70120F9E7FEE709078E
:1019D000090E002804DB00F1E02080F800147047B5
:1019E00000F00F0000F1E02080F8141D70470000A7
:1019F000FEF734FFFFF7E4FEFFF7AEFC5948584905
:101A00004FF4614600240160C0E901640C25C46004
:101A1000C0E904458461C461FFF758FA08B172B6A1
:101A2000FEE750485049443001604FF41651C0E978
:101A30000114C460C0E904458461C461FFF746FA3B
:101A400008B172B6FEE74748484944380160C0E92A
:101A50000164C460C0E904458461C461FFF736FADB
:101A600008B172B6FEE7FFF7D9FB00210846FFF781
:101A700027FC3FA0FFF732FC4FF47A773846FEF799
:101A8000CBFDFFF7E5FC7C102046FEF7C5FDFEF719
:101A90003FFD2046FEF7C0FDFFF7DAFC2046FEF7CB
:101AA000BBFDFEF735FDFEF7A7FD354964284870FC
:101AB00001D90120487001210020FFF701FC31A06D
:101AC000FFF70CFC344D40F6B83600BFFEF7EAFCD9
:101AD00010B109280FD01FE0FFF7BAFC0121002048
:101AE000FFF7EEFB2DA0FFF7F9FB3046FEF794FD64
:101AF000FEF70EFD09E001210020FFF7E1FB2BA01E
:101B0000FFF7ECFB3846FEF787FD01210020FFF7C9
:101B1000D7FB2AA0FFF7E2FB01212846FEF786FE4D
:101B2000012816D1FEF78CFE4FEA0004FEF788FE6E
:101B3000001BB04205D201212846FEF777FE01289E
:101B4000F4D001212846FEF771FE012805D0FFF7E9
:101B500097FC6420FEF760FDB8E7FEF7F9FCF8E7B4
:101B60000010014090000020004400400050004060
:101B7000202048542056414E205441590000000076
:101B80000000002020202053414E472053414E4763
:101B900020202020000000000000024020202044DF
:101BA000414E47204D4F2043554120005654204B75
:101BB000484F4E4720484F50204C450020202020C1
:101BC0002020202020202020202020004FF04070C6
:101BD000E1EE100A70470000FF0000000000000066
:101BE00000000000010203040607080900000000CD
:101BF00001020304141C0008000000204C00000037
:101C0000C4010008601C00084C0000202C070000E4
:101C1000E00100080000EF01FFFFFFFF01000301EA
:101C200000050100030500090100030D001101007A
:101C3000031D00210100040201000801000402024A
:101C40000009010008040100000040004E000000EF
:101C50000100000010000000000000000024F4005B
:040000050800018965
:00000001FF
